:020000040800F2
:100000000030002031D30008DD210008E121000884
:10001000E5210008E9210008ED21000800000000AA
:10002000000000000000000000000000F1210008B6
:10003000F521000800000000F9210008FD2100085A
:1000400085D3000885D3000885D300080122000865
:1000500085D3000885D300086D25000875250008A4
:100060007D250008852500083522000885D3000875
:1000700085D3000885D300080522000885D3000831
:1000800085D3000885D3000885D300080000000050
:100090000000000085D3000885D300088D250008E6
:1000A00085D3000885D3000885D3000885D30008D0
:1000B00085D3000885D3000885D3000885D30008C0
:1000C000000000000000000085D3000800000000D0
:1000D0001122000885D300080000000085D3000825
:1000E000B52500081D2200080000000085D3000887
:1000F000292200082D2200083122000885D300089B
:1001000085D300080000000000000000000000008F
:1001100085D3000885D3000885D3000800000000BF
:1001200000000000000000000000000000000000CF
:0C013000000000000000000085D3000863
:1001400010B5054C237833B9044B13B10448AFF311
:1001500000800123237010BDFC020020000000007D
:100160000844010808B5034B1BB103490348AFF32A
:10017000008008BD000000000003002008440108C2
:1001800001F0FF01102A2BDB10F0070F08D010F848
:10019000013B013A8B422DD010F0070F42B3F6D14C
:1001A000F0B441EA012141EA014122F007047FF065
:1001B00000070023F0E80256083C85EA010586EABC
:1001C000010685FA47F5A3FA87F586FA47F6A5FAF8
:1001D00087F68EB9EED1F0BC01F0FF0102F0070204
:1001E00032B110F8013B013A83EA010313B1F8D1AF
:1001F0000020704701387047002D06BF3546033890
:10020000073815F0010F07D1013015F4807F02BFC8
:10021000013015F4C03F0130F0BC0138704700BF19
:1002200081F0004102E000BF83F0004330B54FEAA7
:1002300041044FEA430594EA050F08BF90EA020F14
:100240001FBF54EA000C55EA020C7FEA645C7FEAA7
:10025000655C00F0E2804FEA5454D4EB5555B8BFCA
:100260006D420CDD2C4480EA020281EA030382EA3B
:10027000000083EA010180EA020281EA0303362DCD
:1002800088BF30BD11F0004F4FEA01314FF4801CA0
:100290004CEA113102D0404261EB410113F0004FB2
:1002A0004FEA03334CEA133302D0524263EB430369
:1002B00094EA050F00F0A780A4F10104D5F1200E07
:1002C0000DDB02FA0EFC22FA05F2801841F1000162
:1002D00003FA0EF2801843FA05F359410EE0A5F136
:1002E00020050EF1200E012A03FA0EFC28BF4CF067
:1002F000020C43FA05F3C01851EBE37101F000451D
:1003000007D54FF0000EDCF1000C7EEB00006EEB29
:100310000101B1F5801F1BD3B1F5001F0CD34908B3
:100320005FEA30004FEA3C0C04F101044FEA44520A
:1003300012F5800F80F09A80BCF1004F08BF5FEA91
:10034000500C50F1000041EB045141EA050130BD71
:100350005FEA4C0C404141EB0101013C28BFB1F583
:10036000801FE9D291F0000F04BF01460020B1FACE
:1003700081F308BF2033A3F10B03B3F120020CDAA1
:100380000C3208DD02F1140CC2F10C0201FA0CF07F
:1003900021FA02F10CE002F11402D8BFC2F1200CE4
:1003A00001FA02F120FA0CFCDCBF41EA0C0190409A
:1003B000E41AA2BF01EB0451294330BD6FEA0404E3
:1003C0001F3C1CDA0C340EDC04F11404C4F12002CE
:1003D00020FA04F001FA02F340EA030021FA04F3E0
:1003E00045EA030130BDC4F10C04C4F1200220FA37
:1003F00002F001FA04F340EA0300294630BD21FA75
:1004000004F0294630BD94F0000F83F4801306BF3A
:1004100081F480110134013D4EE77FEA645C18BF2E
:100420007FEA655C29D094EA050F08BF90EA020FC5
:1004300005D054EA000C04BF1946104630BD91EABD
:10044000030F1EBF0021002030BD5FEA545C05D1C0
:100450004000494128BF41F0004130BD14F58004FF
:100460003CBF01F5801130BD01F0004545F0FE4173
:1004700041F470014FF0000030BD7FEA645C1ABFA8
:10048000194610467FEA655C1CBF0B46024650EADF
:10049000013406BF52EA033591EA030F41F400210B
:1004A00030BD00BF90F0000F04BF0021704730B591
:1004B0004FF4806404F132044FF000054FF0000166
:1004C00050E700BF90F0000F04BF0021704730B527
:1004D0004FF4806404F1320410F0004548BF4042FC
:1004E0004FF000013EE700BF42004FEAE2014FEA51
:1004F00031014FEA02701FBF12F07F4393F07F4F2C
:1005000081F06051704732F07F4208BF704793F02E
:100510007F4F04BF41F40021704730B54FF4607441
:1005200001F0004521F000411CE700BF50EA010244
:1005300008BF704730B54FF000050AE050EA0102ED
:1005400008BF704730B511F0004502D5404261EB5D
:1005500041014FF4806404F132045FEA915C3FF49E
:10056000D8AE4FF003025FEADC0C18BF03325FEA3B
:10057000DC0C18BF033202EBDC02C2F1200300FAEC
:1005800003FC20FA02F001FA03FE40EA0E0021FA11
:1005900002F11444BDE600BF4FF0FF3C06E000BF8F
:1005A0004FF0010C02E000BF4FF0010C4DF804CDFC
:1005B0004FEA410C7FEA6C5C4FEA430C18BF7FEABC
:1005C0006C5C1BD001B050EA410C0CBF52EA430CEA
:1005D00091EA030F02BF90EA020F0020704710F16A
:1005E000000F91EA030F58BF994208BF90422CBFF9
:1005F000D8176FEAE37040F0010070474FEA410CF2
:100600007FEA6C5C02D150EA013C07D14FEA430C0F
:100610007FEA6C5CD6D152EA033CD3D05DF8040B80
:10062000704700BF8446104662468C4619466346B2
:1006300000E000BF01B5FFF7B7FF002848BF10F189
:10064000000F01BD4DF808EDFFF7F4FF0CBF0120CE
:1006500000205DF808FB00BF4DF808EDFFF7EAFF4A
:1006600034BF012000205DF808FB00BF4DF808ED05
:10067000FFF7E0FF94BF012000205DF808FB00BFFA
:100680004DF808EDFFF7CEFF94BF012000205DF884
:1006900008FB00BF4DF808EDFFF7C4FF34BF012091
:1006A00000205DF808FB00BF4FEA410212F500127E
:1006B00015D211D56FF47873B3EB625212D94FEAA9
:1006C000C12343F0004343EA505311F0004F23FA93
:1006D00002F018BF404270474FF00000704750EAE8
:1006E000013005D111F0004008BF6FF000407047A5
:1006F0004FF00000704700BF53B94AB9002908BF46
:1007000000281CBF4FF0FF314FF0FF3000F06EB9F2
:10071000ADF1080C6DE904CE00F006F8DDF804E058
:10072000DDE9022304B070472DE9F047089D044637
:100730008C46002B40F083808A42174647D9B2FA94
:1007400082F242B1C2F1200024FA00F091409740B9
:1007500040EA010C94404FEA1748230CBCFBF8F622
:100760001FFA87FE08FB16C143EA014306FB0EF1A0
:10077000994209D9FB1806F1FF3080F0198199429E
:1007800040F21681023E3B445B1AA4B2B3FBF8F080
:1007900008FB103344EA034400FB0EFEA64509D9CA
:1007A0003C1900F1FF3380F00581A64540F202813B
:1007B00002383C4440EA0640A4EB0E0400261DB17A
:1007C000D4400023C5E900433146BDE8F08702B9B3
:1007D000FFDEB2FA82F2002A50D1CB1B4FEA174E4D
:1007E0001FFA87F80126B3FBFEFC210C0EFB1C331D
:1007F00041EA034108FB0CF38B4207D979180CF14D
:10080000FF3002D28B4200F2E9808446C91AA3B2BB
:10081000B1FBFEF00EFB101143EA014408FB00F8A7
:10082000A04507D93C1900F1FF3302D2A04500F2E0
:10083000D9801846A4EB080440EA0C40BFE78B427D
:1008400009D9002D00F0B1800026C5E9000130462D
:100850003146BDE8F087B3FA83F6002E4AD18B42C9
:1008600002D3824200F2B880841A61EB03010120B6
:100870008C46002DA8D0C5E9004CA5E7C2F12003A5
:1008800020FA03F6974001FA02F04FEA174ED940DA
:100890003043030CB1FBFEF61FFA87F80EFB16116E
:1008A00043EA014306FB08F1994204FA02F409D92C
:1008B000FB1806F1FF3C80F08D80994240F28A805F
:1008C000023E3B445B1A81B2B3FBFEF00EFB1033D9
:1008D00041EA034100FB08F38B4207D9791800F184
:1008E000FF3C73D28B4271D902383944CB1A40EAAB
:1008F000064678E7C6F1200C03FA06F422FA0CF358
:100900001C4320FA0CF701FA06F34FEA144E21FAC1
:100910000CF11F433B0CB1FBFEF91FFA84F80EFBF0
:10092000191143EA014109FB08FA8A4502FA06F265
:1009300000FA06F308D9611809F1FF3048D28A4558
:1009400046D9A9F102092144A1EB0A01BFB2B1FBCA
:10095000FEF00EFB101147EA014700FB08F8B8450E
:1009600007D9E71900F1FF312ED2B8452CD902384A
:10097000274440EA0940A7EB0807A0FB02894F453E
:10098000C64649461AD317D05DB1B3EB0E0267EBEA
:10099000010707FA0CFCF2404CEA0202F740C5E9F5
:1009A000002700263146BDE8F0872E4628460BE793
:1009B0000646E9E61846FDE64345E5D2B8EB020EE9
:1009C00069EB04010138DFE70846D2E760468DE7AE
:1009D0008146B9E7664675E730464AE7ACF1020C56
:1009E000394413E702383C4424E700BF704700BF96
:1009F00008B5074B01221A7003F06AF9054812F096
:100A000067FBBDE8084000214FF4007012F062B9A6
:100A100062030020FC44010808B5074B02221A704B
:100A200002F00CFB054812F053FBBDE80840002122
:100A30004FF4006012F04EB9620300201045010827
:100A400008490B8801339BB20B80DB074FF0020291
:100A500003D54FF6426011F09DBB4FF6416011F097
:100A600099BB00BF5003002008B5054905480BF0AD
:100A700069FDBDE80840044904480BF063BD00BFB0
:100A8000290B000818030020B50A000830030020D5
:100A900008B5064B064800224EF660211A600BF09E
:100AA00033FEBDE8084002480BF054BD5803002057
:100AB000180300200E4A08B513680133012B136098
:100AC00006D90C4B1B780021022B116005D008BD04
:100AD000BDE8084008480BF03DBD4FF4806012F0BF
:100AE000F9F805480BF0D6FDBDE80840FFF7D0BF88
:100AF0005C030020080000203003002010B5074AE6
:100B0000074C084800234EF66021236013600BF069
:100B1000FBFDBDE8104003480BF01CBD5C0300204A
:100B200058030020300300200C4A08B51368013335
:100B3000012B13600CD900214FF48070116012F06A
:100B4000C9F807480BF0A6FDBDE80840FFF7D6BF7F
:100B5000BDE8084002480BF0FDBC00BF5803002070
:100B600018030020024A0021402012F0DBB900BF28
:100B7000410A0008024A00214FF4807012F0D2B9F5
:100B8000F1090008024A00214FF4007012F0CAB9BE
:100B9000390C000800214FF4007012F09BB800BF20
:100BA000024A00214FF4806012F0BCB9190A000813
:100BB000024A00214FF4006012F0B4B9750C00082D
:100BC00002289CBF014B1870704700BF080000202E
:100BD00008B50F4B1B78012B02D0022B0AD008BDA1
:100BE0000C4812F075FABDE8084000214FF48070FF
:100BF00012F070B8084812F06BFA084B00214FF45D
:100C00008060197012F066F8BDE80840FFF740BF39
:100C10000800002028450108604501086103002004
:100C200008B5FFF7D5FF024A024B12781A6008BDDB
:100C3000080000205403002008B50B4B1B78012B43
:100C40000AD00A4A0A4B12781B689A4200D108BDA2
:100C5000BDE80840FFF7E4BF03F088F800214FF437
:100C6000007012F037F8ECE7620300200800002063
:100C70005403002008B50B4B1B78022B0AD00A4AFC
:100C80000A4B12781B689A4200D108BDBDE80840A3
:100C9000FFF7C6BF02F07AFA00214FF4006012F0AD
:100CA00019F8ECE76203002008000020540300203C
:100CB000044A054B12781B689A4200D17047FFF72F
:100CC000AFBF00BF080000205403002070B5274CC0
:100CD00006460D464FF480720021204612F06AF954
:100CE00031462A46204612F057F9267884F8FF50FC
:100CF000032E1FD04E2E18D0012E0AD01C4B1B786D
:100D00001C4A12689A4200D170BDBDE87040FFF7DE
:100D100087BF6378552B21D0AA2BEFD1164812F04C
:100D2000D7F9134A33461670EAE70021402011F044
:100D3000D1FFE3E7114812F0CBF96378012B07D01C
:100D4000022BDBD10E4A0A4B01211B781160D7E739
:100D50000B4A074B00211B781160D1E7094812F0BC
:100D6000B7F9034A02231370CAE700BF2C0700201B
:100D70000800002054030020CC450108FC45010870
:100D80004C0300209845010870B40C490C4C0D4BE5
:100D90000D480E4A26780C780578107803F8046C14
:100DA000002101221960197103F8035C03F8024C59
:100DB00003F8052C70BC03F8010C704749030020B0
:100DC00008000020310800204803002061030020B3
:100DD0000A2900D9704738B50A460C460546054928
:100DE00012F0DAF82819BE22EF2300F8022C00F8DE
:100DF000013C38BD2C080020014B1870704700BF23
:100E000048030020014B1870704700BF49030020C1
:100E1000024A137801331370704700BF610300204A
:100E2000014B1870704700BF6003002008B50C4BE1
:100E30001B78012B06D00B4812F04AF9BDE8084098
:100E40000CF0A2B8084812F043F9FFF79DFFBDE887
:100E5000084006490A224FF6426011F09BB900BFD4
:100E6000600300202C460108444601082C0800209D
:100E700010B5084C82B001460190204612F0A2F84D
:100E8000054B01991980204602B0BDE8104012F0D0
:100E900099B800BF604601080A000020014B18887D
:100EA000704700BF0A000020014B1878704700BF50
:100EB0004C030020F0B58DB00CF0F4FA0CF0FAFA07
:100EC000514AD2F8903043F48033C2F8903010F099
:100ED0005FFF4E4B4E484F4900240B942546264653
:100EE00003F598770833BB4210D09A79002AF9D0DD
:100EF0001A68824219D08A4214D0B2F1904FF1D1CF
:100F00009A880833BB4246EA0206EED10027012246
:100F10000323CDE908270A93002E4FD145B954BBCE
:100F20000DB0F0BD9A881443DCE79A881543D9E7E1
:100F30004FF0B0430795DA6C354842F00202DA64AC
:100F4000DA6C02F002020392039AD3F84C2142F0C9
:100F50000202C3F84C21D3F84C3103F0020304938E
:100F600007A9049B0CF0B6FD2948294600220CF085
:100F700003FF002CD4D04FF0B0430794DA6C25481F
:100F800042F00402DA64DA6C02F004020192019A7F
:100F9000D3F84C2142F00402C3F84C21D3F84C3171
:100FA00003F0040307A90293029B0CF093FD194878
:100FB000214600220CF0E0FE0DB0F0BD4FF0B04332
:100FC0000796DA6C42F00102DA64DA6C02F0010290
:100FD0000592059AD3F84C2142F00102C3F84C2146
:100FE000D3F84C3103F00103069307A94FF090406A
:100FF000069B0CF06FFD3A4631464FF090400CF0E6
:10100000BBFE002D8BD093E7000800587C460108FA
:10101000000400480008004830B5094D0FCD89B0E4
:1010200001AC0FC495E8070003C424F8022B120C8E
:10103000227011F005FE01A811F0DEF809B030BDF4
:101040002044010800F0E6BD10B40C4613460146EA
:10105000224600205DF8044B00F0DCBC704700BF66
:1010600070B5044688B004A8656811F0E3F89DF8EF
:1010700012309DF811209DF81010424811F0A2FF87
:101080009DF81410404811F09DFF9DF81C309DF80C
:101090001B209DF81A103D4811F094FFB5F80B3055
:1010A000A3F51243072B14D8DFE803F0041A251325
:1010B0003D3136150025CDE9005563680295ADF840
:1010C0000C505E7B002E39D0012E55D0304811F0E7
:1010D000FFFF08B070BD2F4811F0FAFF08B070BDD7
:1010E00064682D48617B11F06DFF637B13BB2B4857
:1010F00011F0EEFFEDE72A4811F0EAFFD5F81120D4
:10110000D5F80D10274811F05DFF08B070BD2648D6
:1011100011F0DEFF08B070BDD5F80D10234811F0B6
:1011200051FF08B070BDD5F80D10214811F04AFFED
:1011300008B070BD1F4811F0CBFFCAE71E4811F080
:10114000C7FFFFF769FF1D4B1D487F220D218DF85A
:1011500002208DF800101C68240C214611F032FF8B
:101160006846ADF80C4011F057F80BF0F5FC31462D
:10117000012011F097FDACE7124811F0A9FF25708E
:10118000A7E700BFAC470108D0470108EC470108BA
:10119000804801083C4A0108AC480108D8480108C9
:1011A0004449010870490108E8490108044A010856
:1011B000B44901081049010804480108002004E06E
:1011C000344801085448010808B50B4B4FF400425D
:1011D0001A61002010F024FF68B14FF0B042074BB5
:1011E0008179C2F89C30D2F89C3023F47C5343EAD6
:1011F0000123C2F89C3008BD00400058FECAFECA58
:10120000284A294BD2F8901010B5C2F89010CA2184
:10121000532259625A629A68244C4FF0B041FF2021
:1012200022F007029A6058628B6843F4004388B04A
:101230008B6011F02DFD1E4AD2F8803023F0070399
:1012400043F00403C2F880300CF018FE1949002066
:1012500000F090F9FFF72EFE0121084611F022FD63
:1012600011F0FAFB144A00214FF4805011F05AFE9D
:10127000124B134800946946019311F029F804F5C4
:10128000867104F5067240F23C5302A804F54974D5
:10129000CDE90212CDE9044311F0A4FC11F0DAFB10
:1012A00008B010BD0008005800280040E8010320E5
:1012B000000400586C0900202D2301085D1000086F
:1012C0006110000870B505460CF0DAF86B1C064694
:1012D00002D00CF0E1F80544064C04E0236923F049
:1012E0000403236130BF0CF0CBF8831BAB42F5D372
:1012F00070BD00BF00ED00E04FF0FF3011F048BDC1
:10130000704700BF4FF0FF3011F042BD00214FF495
:10131000805011F0DFBC00BF022011F00BBD00BFF8
:10132000022011F0CDBD00BF70B41D4B1A7882426F
:1013300021D000EB400403EBC404227E667E657E70
:1013400002EB420203EBC202EDB2062E5576F2B278
:1013500006D0247E02EB420203EBC202E4B2147612
:1013600000EB400003EBC000012202741A78062A49
:101370000ED070BC7047D4B220461C7800EB4002FF
:1013800003EBC202E4B25C70527ED2B21A70E7E79D
:101390000029EED14FF0FF3270BCC3F894207047A3
:1013A000A401002010B4174CD4F89430013324D099
:1013B0001548836A826A9BB292B2934204D0816AD2
:1013C00013468AB29A42FAD1D4F894209A4210D2A3
:1013D0000E49D4F8942008881044C01A0C4A0D4BCA
:1013E00012781B785DF8044B00FB02F0D84080B205
:1013F0007047D4F89400C01AF0E700205DF8044B61
:10140000704700BFA40100200028004066030020B0
:1014100063030020680300202DE9F8434F4B504E32
:101420009B68D6F800805805D8F8002064D49368EB
:101430004C4F23F4806393603C7804EB440307EB48
:10144000C303E5B2D3F80C90FFF7ACFF48454FEA71
:1014500044046BD90123062D87F8983018BF00216A
:1014600051D04FF0000C00E06C00631907EBC30390
:101470002C44DA68904296BFDA68C3F80CC0121A9E
:1014800007EBC40498BFDA60637E062BDDB2EBD1B4
:10149000002938D001295AD94B1E9CB2D8F8002017
:1014A000D3685B07FCD5D3682F49DBB263F4906344
:1014B000D3604FF40023CB6003200CF0C9F8274819
:1014C00043691B0C1B0423434361826A836A92B203
:1014D0009BB29A4204D0816A1A468BB29342FAD1E7
:1014E0003368C7F894201A68936843F48063936064
:1014F000AFF30080BDE8F883D368590797D5D36868
:101500005907F9D493E71548826A836A92B29BB26D
:101510009A4204D0816A1A468BB29342FAD1C7F834
:1015200094200320BDE8F8430CF07CB80F4A1388E0
:1015300010FA83F34B4539BF11880023A9EB000152
:101540000123062D89B287F898308AD1A0E7084B8D
:101550001B78012BA0D11C46A0E700BF002800404B
:101560006C030020A4010020000800586403002040
:1015700068030020F8B50D68424E434CCA2253233D
:101580006A626B62B368216043F02003B360B368A2
:101590003E4A03F00703C3F10403D9B21170326964
:1015A0004FF4FE0302F4FE0293FAA3F3B3FA83F3BB
:1015B00022FA03F30133364A364FDBB21370326935
:1015C000C2F30E02164603FB06F3A3F5A073CB404D
:1015D0004FF6FE7101328B423A8046D92E4B4FF6C0
:1015E000FF721A802D4B1A6842F400221A60D3F859
:1015F000802042F40022C3F88020002839D1284AF4
:10160000012182F898104FF0FF360621C2F894604D
:10161000107482F8280082F8400082F8580082F89E
:10162000700082F888001170AA6822F48062AA60B3
:10163000EA68D2B262F490624FF40021EA600320BB
:10164000D9600CF005F823681D68AB6843F480434B
:10165000AB60FF2303216B62084600220BF050FFB2
:10166000BDE8F84003200BF095BF0B4A9BB21380F6
:10167000B8E7EB685B05ECD503200BF0D3FF2368DC
:101680001D68E6E7002800406C0300206803002086
:101690006303002066030020640300200008005854
:1016A000A40100202DE9F0438046EFF3108972B6C3
:1016B000104F002404EB440507EBC5055FFA84FCDA
:1016C0002E7C05F1100E013406F0FF0036B1062C19
:1016D000F0D189F310880120BDE8F08301242C7437
:1016E00089F31088C5F814806A746B6081F800C0B3
:1016F000BDE8F083A40100202DE9F0410446EFF39A
:10170000108872B6274F284D03200BF057FF3E6814
:1017100004EB4402336805EBC202CA20532158622D
:101720005962127C022A08D0FF225A6203200BF071
:1017300031FF88F31088BDE8F08120460021FFF7D3
:10174000F3FD2B78062BDAB204D06B78934224D1C8
:101750003368E9E7154B9B6813F4806F336815D144
:101760009A6822F480629A60DA685207FCD5DA68D7
:101770000F49D2B262F490624FF40024DA60032081
:10178000CC600BF065FF3B681B68CDE7DA6851075A
:10179000E6D5DA685107F9D4E2E7FFF73DFE3B688A
:1017A0001B68C1E76C030020A40100200028004052
:1017B000000800582DE9F84F5E4C00EB400304EBA5
:1017C000C30381461B7C022B8B464FEA400600F088
:1017D000A580EFF3108772B6DFF85C8103200BF071
:1017E000EDFED8F800A0DAF80030CA2206EB0905B1
:1017F0005A6204EBC50553225A6202232B74C5F8C2
:101800000CB0C5F808B02378062BDAB21FD12378C4
:101810004FF0FF31DBB26370002084F800906A76ED
:10182000C4F89410237862789A4257D14E4404EB5E
:10183000C604E368181AE060DAF80030FF225A6242
:1018400003200BF0A7FE87F31088BDE8F88FFFF7A1
:10185000A9FDEB680344EB60E968237803EB4303DD
:1018600004EBC303DB6899423DD323780CE003EB20
:10187000430304EBC30302EB050CDB68994204EB62
:10188000CC0C0FD39CF8193003EB430204EBC202DB
:10189000DDB292F819C0BCF1060F4FEA43025FFABD
:1018A0008CF3E4D1531904EBC3035B7E062BD9B24E
:1018B00005D001EB410304EBC30383F818905319DF
:1018C00006EB090204EBC20204EBC3035176157662
:1018D00083F81990237862789A42A7D0FFF79CFD8D
:1018E000D8F800A0A8E7227821788A42D3B218D08D
:1018F00003EB430104EBC1010A7E02EB420C04EB53
:10190000CC0CD2B28CF819906B762A7681F81890AC
:101910002378DBB2637084F8009083E7FFF7ECFE76
:1019200057E703EB430204EBC2026B7682F8189090
:10193000EEE700BFA40100206C030020104700BFA9
:101940002DE9F84FEFF3108772B62F4E2F49336809
:101950001B684FF0CA094FF05308C3F82490C3F82E
:1019600024809A6822F480629A60087800EB40052F
:1019700001EBC5052A7C022A13D0DA685207FCD590
:10198000DA682349D2B262F490624FF40020DA6040
:10199000C86087F3108833681B68FF225A62BDE86D
:1019A000F88FD5F804B0D5F814A091F898302BB37F
:1019B0006B7C012BC4B2D9B210D087F310882046BB
:1019C000FFF79AFE33681B68C3F82490C3F824809D
:1019D0005A4621465046FFF7B1FFDCE72046FFF7A5
:1019E000A3FC87F31088A9682046FFF7E3FE33685D
:1019F0001B68C3F82490C3F82480E9E7FFF70CFDC7
:101A000087F31088C7E700BF6C030020A401002003
:101A10000008005808B10020704738B50648074C48
:101A2000074D236005600EF035FE431EDBB2022B2E
:101A300088BF002038BD00BFDC0800203C08002023
:101A400000380140044B02689A4200D07047034BB3
:101A50001B68002BFAD01847003801403C080020D2
:101A6000012208214FF090400CF086B901224FF47A
:101A700000414FF090400CF07FB900BF00224FF4BE
:101A800000414FF090400CF077B900BF10B582B024
:101A900000244FF47A7301220DF1070104488DF8F8
:101AA00007400FF02BFB9DF8070002B010BD00BFF0
:101AB000DC08002030B5002199B00C46442207A86C
:101AC00011F078FACDE90044CDE90244CDE90444AF
:101AD00006940CF0C3F94FF0B0420125D2F89030D3
:101AE00023F01803C2F890300F2307934FF480328D
:101AF0004FF48073CDE9095308920523402207A8CB
:101B0000CDE90B2311940CF08BFA6F2202232946A6
:101B10006846CDE90023CDE90244CDE904440694AA
:101B20000CF070FE20460DF033FA19B030BD00BF46
:101B300010B58CB02022002101A811F03BFA4FF41F
:101B400040544FF48041022210236846CDE9091227
:101B500000940B930DF050F80CB010BD70B500243C
:101B600090B0294D294E0294214606A82822CDE99D
:101B7000034401940594009411F01CFA47F6FF7396
:101B80000F222846C5E90223C5E905446C602C6193
:101B90002E600DF0DBFD01A928460122CDE90444A9
:101BA000ADF804408DF8064002940DF08BFE184B02
:101BB00000936946284601220DF0C4FF4FF480735C
:101BC000012206A928460F938DF83820CDE9094453
:101BD000CDE90B44ADF818408DF81A4007940D94E8
:101BE0000DF0D0FA2246214628460EF0BBF8CA2254
:101BF000532372627362B368FF2223F00703B3605A
:101C0000726210B070BD00BF6C0900200028004057
:101C10000101010038B5114C114B236000254FF430
:101C200000430C224FF4E13120466261E3616160C0
:101C3000C4E90255C4E908552561A561A5620FF004
:101C400021FB294620460FF0CBFB294620460FF00A
:101C500011FC2046BDE838400FF094BBDC080020A2
:101C6000003801404FF0B04300B5996C41F00401D9
:101C70009964996C83B001F0040101910199996C08
:101C800041F0010199649B6C03F001030093002271
:101C90000F210E20009B0BF033FC0E2003B05DF8EB
:101CA00004EB0BF077BC00BF2DE9F04300248BB0B0
:101CB000CDE90544CDE907444FF0B0430994DA6C0F
:101CC0004F4DDFF8448142F00402DA64DA6C02F02E
:101CD00004020492049ADA6C42F08002DA64DA6C4C
:101CE00002F080020392039ADA6C42F00202DA6494
:101CF000DA6C02F002020292029ADA6C42F00102FD
:101D0000DA64DA6C02F001020192019ADA6C42F0B4
:101D10001002DA64DB6C03F01003009322462846BD
:101D20004FF49271009B0CF027F8224648F21B11E9
:101D30004FF090400CF020F82246404610210CF065
:101D40001BF8032605A908232E4807940127CDE98F
:101D500005360BF0BFFE05A928464FF49273CDE976
:101D60000537CDE907440BF0B5FE05A9284640F23A
:101D700003230593CDE906440BF0ACFE05A948F218
:101D80001B134FF090400593CDE9067408940BF0B7
:101D9000A1FE0422022305A94FF09040CDE90523BE
:101DA0004FF01009CDE9074409940BF093FE40462B
:101DB00005A9CDE906740894CDF814900BF08AFEBD
:101DC00005A94FF4C0534FF090400593CDE9066448
:101DD0000BF080FE05A928464FF48813CDE90634A0
:101DE000CDF814900BF076FEC02305A92846CDE966
:101DF000066405930BF06EFE0BB0BDE8F08300BFE8
:101E000000040048001C00480010004830B587B0AE
:101E10000BF012FBFFF7D8F9FFF74CFEFFF788FE37
:101E20003348344B03600BF0E1FFFFF73DFFFFF752
:101E300019FFFFF793FEFFF7EDFE2F4B2F4800240D
:101E4000C0E900340DF0ECF82D482E4A02604FF442
:101E500082734FF40071072243604FF4E06508235A
:101E60008161C2624363C0E90444C0E90744C0E938
:101E7000094484600463C5600EF04AF900F008FE6E
:101E8000FFF7BEF904A80494ADF814400BF0C0F8B5
:101E90001D4811F01DF91D4811F01AF9224621467E
:101EA00001231B4811F08EF81A4811F011F99DF822
:101EB00010109DF811209DF812300093CDE90121FA
:101EC0009DF813309DF814209DF81510124811F05C
:101ED00079F8FEF74FFEFEF755FEFEF7C5FDFEF75B
:101EE0005FFEFEF765FEFFF707FAFEF7E1FEFAE791
:101EF00040080020000C00580010005890090020F5
:101F0000A409002000300140584A0108604A010835
:101F1000984A0108D44A01080C4B0108704700BFD9
:101F2000704700BF4FF0B04300B5196D41F4002178
:101F300019651B6D83B0002203F400230193114641
:101F40002E20019B0BF0DCFA2E2003B05DF804EB91
:101F50000BF020BB124B02689A4200D070474FF042
:101F6000B04300B5196D41F4801119651B6D83B044
:101F7000002203F48013114601932C20019B0BF0E7
:101F8000BFFA2C200BF006FB002211462D200BF08F
:101F9000B7FA2D2003B05DF804EB0BF0FBBA00BFDD
:101FA000000C005810B504468EB0302202A8002163
:101FB00011F000F822680F4B9A4201D00EB010BD0C
:101FC0004FF400724FF0004302A8029208930CF005
:101FD00013FE60B94FF0B0431A6D42F480221A65C7
:101FE0001B6D03F480230193019B0EB010BDFFF71E
:101FF00095FFEFE70010005810B504468EB0302270
:1020000002A8002110F0D6FF2268234B9A4201D08B
:102010000EB010BD0BF022FF0BF020FF4FF0B042CE
:1020200002A8D2F8903023F4407343F48073C2F8CE
:1020300090304FF400624FF4807302920A930CF0D8
:10204000DBFD28BB4FF0B0430022D3F8901041F4E1
:102050000041C3F89010996D41F4806199659B6DC2
:1020600003F48063114601930320019B0BF048FAAF
:1020700003200BF08FFA0022114629200BF040FAC2
:1020800029200BF087FA20460DF034FF0EB010BD6A
:10209000FFF744FFD6E700BF0028004070B5016895
:1020A000174A88B000239142CDE90333CDE90533C7
:1020B000079301D008B070BD4FF0B04203A9106E75
:1020C00040F480501066106E00F480500290029828
:1020D000D06C40F00100D064D26C059302F0010294
:1020E0000192E025052202244FF09040CDE90354EF
:1020F000019E069307920BF0EDFC08B070BD00BF87
:102100000030014070B5002494B0054630222146CD
:1021100008A8CDE90344CDE90544079410F04AFF2F
:102120002A682B4B9A4201D014B070BD012308A835
:10213000CDE908340CF060FD002842D14FF0B043E7
:1021400001201A6E234C42F480421A661A6E02F481
:1021500080420292029ADA6C42F00102DA64DB6C8D
:10216000059003F0010301934FF4C062022303A919
:1021700003920493032207234FF09040CDE90623F6
:10218000019E0BF0A7FC144B23600F23102180222B
:10219000636020460023C4E90332C4E90533C4E97F
:1021A0000733A1600BF06AFA70B900221146AC67E0
:1021B0002420A5620BF0A4F924200BF0EBF914B055
:1021C00070BDFFF7ABFEB9E7FFF7A8FEEDE700BF74
:1021D000003801407C08002044000240FEE700BFB8
:1021E000FEE700BFFEE700BFFEE700BFFEE700BF5F
:1021F000704700BF704700BF704700BF0BF034B995
:10220000FFF79EBB01480BF017BC00BF7C08002005
:1022100001480EF00FBB00BFDC08002001480DF0A4
:1022200035BA00BF6C0900200BF04EB80AF0DCBFD5
:102230000BF0CABD08B510200BF0B8FDBDE8084092
:1022400009F0F2BD70B5161E07DD0C468D19FFF7BB
:102250001DFC04F8010BA542F9D1304670BD00BF4A
:102260004FF0FF30704700BF4FF400534B60002029
:10227000704700BF01207047002070470C490D4A8D
:102280000B6810B50C4C121B2BB11844904207D8A8
:102290000860184610BD094B0B6018449042F7D9EE
:1022A00010F050FE0C2303604FF0FF33184610BDB2
:1022B000740300200030002000100000C80C002033
:1022C000EFF31083036072B6704700BF036883F3B7
:1022D00010887047704700BF38B50A4C204600F0A0
:1022E000BFF90625072005210422012384F8545054
:1022F00084F8400084F8681084F87C2084F83C302E
:1023000038BD00BFB00A0020104B114910B40A6854
:102310001C682244120EC2711C680A682244120C06
:1023200082711C680A682244120A42710A6819689C
:102330005DF8044B0A440271DA78C2705A888270E0
:102340001A68120A42701B68037070479475FF1F69
:102350009075FF1FF0B58BB06F299DF8407039DC88
:1023600005460170481C35D001F00F00012686405B
:102370001FFA86FC11F0F004A5F802C04FF0B0413E
:102380002AD0102C3DD0202C47D0CC6C2D48686032
:1023900044F08004CC64C96C01F08001049104997C
:1023A00005960221CDE90771AF7242B3032A26D008
:1023B000022A3ED0012B0CBF11230123012A0693D0
:1023C00005D1119B6146DAB20BF0D6FC686805A90D
:1023D0000BF080FB0BB0F0BDCC6C4FF0904044F0A4
:1023E00001046860CC64C96C059601F0010101919B
:1023F0000199AF720221CDE90771002AD6D1069268
:10240000E5E7CC6C1048686044F00204CC64C96C09
:1024100001F0020102910299C2E7CC6C0B4868609E
:1024200044F00404CC64C96C01F0040103910399E5
:10243000B6E7012B119A09920CBF122302230693CF
:10244000C5E700BF001C0048000400480008004821
:1024500030B5054690F900006F2887B045DC002BA9
:1024600043D0144601296A882B61019276D0022953
:102470000CBF4FF404134FF444130293AB7A03934D
:1024800001A90223686804930BF024FB032C9CBF72
:10249000344B53F824106B8888BF0021202B2CD894
:1024A000012B28D9023B1E2B25D8DFE803F022247C
:1024B0002024242455242424242424245324242480
:1024C0002424242424242424242424241000172411
:1024D0002B78254803F00F03002240F823502046B4
:1024E0000BF00EF820460BF055F807B030BD08246D
:1024F000EEE70724ECE70624EAE7B3F5806F27D080
:102500000CD9B3F5005F23D012D9B3F5804F1FD09B
:10251000B3F5004F14BF06242824D9E7B3F5807F14
:10252000D5D00ED9B3F5007F14BF06241724CFE70A
:10253000B3F5006F0CD0B3F5805F14BF06242824D8
:10254000C6E7402BC3D0802B14BF06241724BFE757
:102550002824BDE70A24BBE70924B9E74FF4881310
:1025600002938BE7384B01087803002001200BF021
:102570001DBC00BF02200BF019BC00BF04200BF0F3
:1025800015BC00BF08200BF011BC00BF08B520200F
:102590000BF00CFC40200BF009FC80200BF006FC3B
:1025A0004FF480700BF002FCBDE808404FF400705F
:1025B0000BF0FCBB08B54FF480600BF0F7FB4FF459
:1025C00000600BF0F3FB4FF480500BF0EFFB4FF487
:1025D00000500BF0EBFB4FF480400BF0E7FBBDE845
:1025E00008404FF400400BF0E1BB00BF01284FF062
:1025F000000307D8094A52F8233073B11A6962B14F
:10260000D8681047400801330128DBB2F2D04008F7
:1026100001330128DBB2F5D1ECE7704778030020E5
:1026200030B583B00C46054601A8FFF749FE54B10A
:10263000012C03D1094A13682B43136001A8FFF74B
:1026400045FE03B030BD054A136801A823EA05031F
:102650001360FFF73BFE03B030BD00BFB80300209E
:1026600070B582B000240126054632462346214635
:102670000196009409F02CFF324605F17C002346B8
:10268000CDE90046042109F023FF05F12800234687
:102690002246CDE90044142109F01AFFCDE9004497
:1026A00005F1140023462246102109F011FF02B063
:1026B00070BD00BF002905DD1629A8BF1621022222
:1026C00008F082B96FF008039942B8BF1946022298
:1026D00008F07AB905207047283009F003BF00BF21
:1026E00030B58BB00446019108F094FA0121019BAA
:1026F00084F8901004F12800032209F0F1FE00256F
:1027000005AB04AA204603A9059508F085FA2046E2
:1027100006A908F0B3FA0DF112012046ADF81250E7
:1027200008F0C8FA204608F0DDFAA322204602216C
:1027300008F068FB20463F2108F0E2FA0A4B0893B4
:10274000204608A9ADF8265008F0FEFA074B2046AF
:102750001B68079307A908F06BF92046022108F0CF
:10276000AFF80BB030BD00BF030002033C440108CA
:1027700008B50A4810F0ACFC002201214FF090404F
:102780000BF0FAFA0120FEF79DFD0122BDE808409A
:1027900011464FF090400BF0EFBA00BF484B0108D4
:1027A00010B590F89030044653B1072B08D00C4C6C
:1027B000012120460BF0CEFA0128F9D0002010BDEF
:1027C000002210214FF090400BF0D6FA0122102188
:1027D0004FF090400BF0D0FA012384F89030E6E7F8
:1027E000000400482DE9F84F8846BDF828A0164699
:1027F0001C468146FFF7D4FF18B103273846BDE8D1
:10280000F88F0746024610214FF090400BF0B4FAC3
:102810006EB1013E18FA86F609F13C0B08F1FF355E
:1028200015F8011F584600F0E3FAB542F8D1BAF1A5
:10283000000F0DD00AF1FF3514FA85F509F13C09B6
:10284000013C14F8011F484600F0D2FAAC42F8D11E
:10285000012210214FF090400BF08EFAB8F80020C2
:1028600041F601339A42C9D0044C012120460BF0B5
:1028700071FA0128F9D03846BDE8F88F0004004805
:102880002DE9F8430D46BDF8209090461C460646BB
:10289000FFF786FF18B103273846BDE8F8830746DF
:1028A000024610214FF090400BF066FAB8F1000F8D
:1028B00043D008F1FF3815FA88F83C36013D15F889
:1028C000011F304600F094FA4545F8D1012210214D
:1028D0004FF090400BF050FA194D012128460BF0B3
:1028E00039FA0128F9D010214FF0904000220BF066
:1028F00043FA0021304600F07BFAB9F1000F0CD00A
:1029000009F1FF3514FA85F5013C0021304600F04D
:102910006FFA04F8010FAC42F7D1012210214FF0F9
:1029200090400BF029FA064C012120460BF012FAD8
:102930000128F9D03846BDE8F8833C36C6E700BF29
:10294000000400482DE9F843884615461E46074610
:10295000FFF726FF20B14FF003094846BDE8F88392
:102960008146024610214FF090400BF005FA7EB1EF
:10297000013E18FA86F63C37013D08F1FF3414F8A1
:10298000011F384600F034FAB44205F8010FF6D1C1
:10299000012210214FF090400BF0EEF9B8F8002022
:1029A00041F601339A42D8D0044C012120460BF065
:1029B000D1F90128F9D04846BDE8F8830004004861
:1029C00090F89000704700BF80F89010704700BFEB
:1029D0002DE9F041294D2A4C80460F460022414600
:1029E0002046AE6A0CF096FB0022394620460CF0D9
:1029F00053FBAB6AB342F1D198F8014098F8031049
:102A000098F80220DFF884C01E48013CC4EB041390
:102A100040F2B55611F0030F04EB830306FB01F6F9
:102A2000797803F1010302F1FF3206F1030618BFC2
:102A300060466500C1EB011403EBD37102EB960312
:102A40003E7820FA05F24FF4616CB8787D68A400F6
:102A500003EB610302F003020B490CFB0644044440
:102A60009B1A01FB0343C5F57F7503359802990D49
:102A7000401941F10001BDE8F08100BF002800408D
:102A8000E40300205055440080510100A0AA9900A1
:102A900070B5244E347886B00CB106B070BD4FF0DE
:102AA000B042214DD2F8903020496C6043F400438D
:102AB000C2F8903028461F2240F2FF33C5E90223B6
:102AC000C5E906442C6129600CF040FE184B0093C8
:102AD0002246694628460DF035F8224601A92846C7
:102AE000CDE90144CDE904440CF0ECFE28460DF09C
:102AF00001FA2246012129200AF002FD0D4C29206D
:102B00000AF048FD28464FF480710CF04BFD211D62
:102B100004F11800FFF75CFF01232060337006B05A
:102B200070BD00BF08040020E4030020002800401E
:102B3000010101000C04002010B5044C211D04F11A
:102B40001800FFF745FF206010BD00BF0C040020F7
:102B5000014B1868704700BF0C0400200320704729
:102B600008B501467D220023C001490EFDF7C4FDD2
:102B700008BD00BF4FF47A73C0F30902800A03FB5B
:102B800002F203FB00F000EB9220704710B5084CF6
:102B90004FF4807120460CF005FD22680549D3688A
:102BA000DBB263F4C0734FF40030D360C86010BD73
:102BB000E4030020000800582DE9F04F4F4B83B08C
:102BC0009A6893F81AB00192824693F804905C795F
:102BD00093F80680DD795E7EDF7EFFF7D7FF019AEE
:102BE0004748C2F57F7E0EF1030ECAF3090212FABE
:102BF0008EFEB0EB9A2F1FFA8BFC1FFA8EFE4FEA67
:102C00009A2209D2A2F5A832A2F5C0720CF10101F4
:102C100082421FFA81FCF5D8B2F5616F1FFA89F381
:102C20000BD3A2F561620133B2F5616F9BB2F8D2AA
:102C30003B2AA4B204D901343C3A3B2AA4B2FAD8C4
:102C40004244BEF5806F92B20DD3AEF58061C1F300
:102C5000852101310A4492B2CEF3090E03E03C3AD9
:102C6000013492B2A4B23B2AF9D83B2C0DD93C3C9A
:102C7000A4B201333B2C9BB2F9D8172B07D9183BD0
:102C80000CF101019BB21FFA81FC172BF7D8B90791
:102C900027D11C490E4416F8011C614505D2BCFB26
:102CA000F1F001FB10C11FFA81FC174917488A7027
:102CB000CEF57F76033600224E604C704FF02066D2
:102CC0004FF48074C1E903220B7081F820C0CD70ED
:102CD0008E614C62CA614A6103B0BDE8F04F0CF0EE
:102CE00051BA0B490E4416F8011C6145DDD2BCFBFC
:102CF000F1F001FB10C11FFA81FCD6E70C040020A3
:102D00007F510100684B0108BC030020E403002050
:102D10005C4B010810B586B0044601A96846FFF770
:102D200057FE084B1B6823441B1A032B8CBF002142
:102D300001210420FFF774FC2046FFF73DFF06B099
:102D400010BD00BF0C04002000B587B001A9684683
:102D5000FFF73EFE07B05DF804FB00BF00B587B08B
:102D600001A96846FFF734FE024B1B68C01A07B082
:102D70005DF804FB0C04002010B586B0044601A9E0
:102D80006846FFF725FE4FF47A720346C0F3090048
:102D900002FB00F29B0A920A43EA8150228006B0AD
:102DA00010BD00BF09F036BC38B5074D02460C46D1
:102DB000284600210DF070F8224628460121BDE882
:102DC00038400DF069B800BFE403002070B5074E2D
:102DD00005460C46304600210DF076F801212860AA
:102DE00030460DF071F8206070BD00BFE403002094
:102DF00000B587B005A80023ADF80E108DF813308C
:102E0000FFF75EFA4FF0FF3300930DF11302012339
:102E10000DF10E0105480DF0A7FA05A8FFF756FAC7
:102E20009DF8130007B05DF804FB00BFA409002063
:102E3000014B1860704700BF0C00002030B40D4CEF
:102E40000D4D226843F2390305FB02320323A3FB35
:102E50000253D51A03EB55039B0F091AC3EBC37337
:102E60000131D31A93FBF1F501FB153322601844AD
:102E700030BC70470C0000206D4EC641531E9BB203
:102E800042B10133CA18013811F8013B00F8013F83
:102E90009142F9D1704700BF72B110B4541EA4B270
:102EA00001340C44024411F8013B02F8013DA142F7
:102EB000F9D15DF8044B7047704700BF531E9BB2B9
:102EC0002AB10133034400F8011B9842FBD170473B
:102ED000D0B1D1B130B44D1E0D4910FA85F5441E64
:102EE0004FF0FF3014F8012F0823504040F3000248
:102EF000013B0A409BB282EA5000002BF6D1A5426A
:102F0000F0D1C04330BC704770470846704700BFDF
:102F10002083B8ED08B5054BDB6A9847044B05489C
:102F200004221A70BDE8084010F0D2B878580108A1
:102F300066040020744B010808B5054BDB6A98470E
:102F4000044B054805221A70BDE8084010F0C0B8CF
:102F50007858010866040020804B010808B5054B2D
:102F6000DB6A9847044B054802221A70BDE8084006
:102F700010F0AEB87858010866040020904B0108A4
:102F800008B5054BDB6A9847044B054803221A70C5
:102F9000BDE8084010F09CB878580108660400208D
:102FA000A04B010808B5084809F074FB06484FF427
:102FB0007A6109F0A9FB044809F0CCFA034B1A78AE
:102FC0000AB906221A7008BD2804002066040020F1
:102FD000F0B5134C83B0E76A01900E461D461446C7
:102FE000B847104B019910481E8032460FF0D4FFAD
:102FF0000E4B60B21870FDF7FFFE2846FDF702FF8A
:10300000FDF706FF0A4A0B4B157001221A70FDF7F7
:103010000DFF094803B0BDE8F04010F059B800BFFB
:103020007858010810000020080A002064040020DD
:103030006504002066040020AC4B01082DE9F04334
:103040008BB0FFF749F93E483E4E3F4C3F4D10F0E4
:103050003FF83F493F4A4048404B0560C0E90114F2
:10306000C0E90323336898473D4810F031F8F3680E
:103070003C4898473C4810F02BF8F26900240125A1
:103080004FF47A734FF008094FF00C08CDE907436D
:10309000CDE90544234617460394224628461621C7
:1030A00004950195CDF80890CDF80080B847052328
:1030B00042462146CDE90845CDE90644CDE904451F
:1030C000CDE900490394029328462B46B469A047F2
:1030D000736D28460A21984724480FF0F9FFFDF741
:1030E000E3FE80B1736B4FF4FA609847204B2148A0
:1030F00041F288321A600FF0EBFF1F480BB0BDE8B9
:10310000F0430FF0E5BF1A4B1C4C1D491D4840F21F
:10311000DC5206251A60257009F014FA4FF47A6122
:10312000184809F0F1FA174809F014FA16480FF098
:10313000CFFF11480BB0BDE8F0430FF0C9BF00BF8F
:10314000B84B010878580108D12F0008152F000846
:10315000392F00085D2F000840040020812F00084F
:10316000E84B010840DA8E33F44B0108084C0108A3
:1031700068040020184C0108704C01086604002007
:10318000A52F000828040020444C0108F0B5714D1B
:103190002B78013B8DB0052B00F2DA80DFE803F0DD
:1031A0008803032A4D646C480FF092FFFDF77CFE04
:1031B000002800F0BF800021684C0691CDE907117E
:1031C000CDE903110123A669099305270822059378
:1031D00018460091CDE901270C22B047604A636B85
:1031E0001068984700232B70236E23B30DB0BDE801
:1031F000F0401847594C5B480FF06AFFA1690B91EA
:103200000026012305270822CDE901271846099346
:10321000059331460C22CDE90766CDE903660B9F85
:1032200006960096B8474E4A636B10689847236E1F
:103230002E70002BDAD10DB0F0BD4B480FF048FFD7
:10324000FDF732FE0028B6D1444C08900123CDE9A9
:103250000600CDE9030000900146A6690993052701
:10326000082205931846B5E74048414E0FF030FF5D
:1032700040480FF02DFF404A3188502049231070FC
:1032800053704E20472304299070D37007D903321E
:103290000439002302F8013F01338B42FAD12F4C4D
:1032A000012009F013F93178A36A3348984799E768
:1032B00032480FF00DFF324A324B92F9002093F959
:1032C00000300093114630480FF07CFEFDF7ECFD16
:1032D00068B3274E33886BB3274F2C4938460422F6
:1032E0000FF01EFF044628BB29480FF0F1FE5023C3
:1032F00032883B704F237B704E23BB70042A4FF003
:103300004703FB7007D9FB1C043A204603F8010F62
:1033100001308242FAD1114C012009F0D7F83178FE
:10332000A36A154898471B480FF0D2FE5AE7104B86
:103330001B880BB9094C55E717490F4804220FF0B9
:10334000EFFE0028F6D11548044C0FF0C1FE49E706
:10335000024C49E766040020004D01087858010836
:1033600068040020F44C0108144D0108204D0108A8
:1033700010000020304D0108080A00207C4C010894
:103380006404002065040020884C0108404D0108B9
:10339000B44C0108C84C0108484D0108DC4C010838
:1033A000024B01221A70FDF7F5BB00BF6705002034
:1033B00002282DE9F04106D0E028054647D0012833
:1033C0000ED0BDE8F081334B334A344C34481A6098
:1033D00046F255610522227002709980BDE8F081A5
:1033E000304C2C4E304B314ADFF8B0802C4F3360DC
:1033F00042F226710A237260318127220021204681
:1034000088F800303B700FF0D5FD294A25701378FD
:1034100063700133DBB2E01C137009F021F804F192
:10342000200C20686168A268E36835460FC5103437
:1034300064452E46F5D12068A188A279AA7128603A
:103440002723A98088F800303B70BDE8F081194B34
:103450009A7B3AB95A78012A14D0042AB1D10122B0
:103460005A70AEE70B4A0D49D87B507003200870A4
:103470001C7C9470052501210020157059709873EB
:10348000BDE8F0819B890348044A5BBA02210380AE
:10349000117096E7740400201122334412000020BA
:1034A000130000204C0A00201E1F20212223242567
:1034B00090050020840A0020F0B5314D87B02878AF
:1034C000694603F0FFF800283AD0012100238DF867
:1034D00012109DF8087029788DF804301E46039369
:1034E000ADF810301C461A46264B27481A705F70FC
:1034F0005C609E700FF066FD2B7863B10024234F53
:10350000234E2346F95C30460FF05CFD01342A78E7
:10351000E3B29A42F6D81F480FF0DAFD01A803F093
:103520000FFF04461C480FF0D3FD1C4B1C4853F8FA
:1035300024100FF047FD201E18BF012007B0F0BD7A
:10354000184B124C1A78184B29781F785AB9012356
:103550008DF804208DF808700394ADF810100E4615
:103560008DF81230C0E701228DF808700394ADF891
:1035700010100E468DF804208DF81220B4E700BF1D
:10358000120000206C040020745001087404002014
:10359000C4500108505C0108845001087C000020E0
:1035A000B0500108680500202400002010B590B03C
:1035B0004FF48173012201A8ADF808308DF8042082
:1035C00003F09AFD044615480FF082FD144B154890
:1035D00053F824100FF0F6FC4CB913480FF078FDA7
:1035E000124A134B146007221A7010B010BD06A8BF
:1035F00000248DF8184003F0D3F89DF81C3023B94F
:103600000B4B02221A7010B010BD06A88DF81C409A
:1036100003F01AFA064B02221A70F4E7D0500108A0
:103620007C000020B0500108F45001088C050020F7
:103630006605002010B5194C23688AB00133236059
:10364000FDF72CFC2368984215D815480023236009
:1036500009F020F8012468468DF8004003F0A0F836
:1036600038B99DF80430B3B10E4A0F4B04211170E4
:103670001C700AB010BD0B4B094806221A7009F0E5
:1036800009F84EF66021064809F03EF8044808F0B3
:1036900061FF0AB010BDFFF789FFEAE78805002047
:1036A00070050020660500202500002010B5437835
:1036B0000D2B044609D009480FF00AFD084B62782B
:1036C000084853F822100FF07DFC23780E2B00D011
:1036D00010BDBDE810400020FFF7ACBF0451010849
:1036E00038000020B050010810B504468AB02348C5
:1036F0000FF0EEFC6278224B224853F822100FF0B4
:1037000061FC23786278012B0DD0042B09D142B9DA
:103710001D4B1A782AB101229A73227ADA73627ADF
:103720001A740AB010BD2ABB18480FF0D1FC184813
:103730000FF0CEFC072368468DF8003003F030F818
:10374000019914480FF03EFC13480FF0C1FC2D23E3
:1037500068468DF8003003F023F89DF904100F48F7
:103760000FF030FC0E480FF0B3FC0E4B04221A7021
:103770000AB010BDFFF71AFF0AB010BD30510108A2
:1037800038000020B0500108840A00204851010888
:103790006C51010878510108745C010890510108CE
:1037A0005C4A010866050020F1B12DE9F041DFF81F
:1037B00044800F4F06460D460024315D40460FF011
:1037C00001FC631C13F00F0FDCB2384604D1A54294
:1037D00005D90FF07DFCF0E7DCB2A542EDD8BDE8DD
:1037E000F04103480FF074BC01480FF071BC00BFFA
:1037F0005C4A0108A8510108F0B504468BB0A748FF
:103800000FF066FC6278A64BA64853F822100FF022
:10381000D9FB6078002849D16379012B76D0A24E7C
:10382000337813B1B2890132B281627B32B1E2786E
:10383000022A03D0E02A6CD0012A41D06D469B4E6B
:103840000FCE0FC596E8030085E80300616998482C
:103850000FF0B8FB637C97480AAA02EB830353F886
:10386000281C0FF0AFFBE17893480FF0ABFB217BF6
:1038700092480FF0A7FB237BD3B9217990480FF032
:10388000A1FBB4F90E108F480FF09CFB94F91010B7
:103890008D480FF097FB94F90E00FDF7ADFA94F9FF
:1038A0001000FDF7AFFA89480FF012FC0BB0F0BD25
:1038B00087480FF00DFC217BA068FFF775FFDCE760
:1038C000237B002BBAD083480FF07CFB237B5BB1BA
:1038D000814E0025A3683046595D0FF073FB01351A
:1038E000227BABB29A42F5D878480FF0F1FBA3687F
:1038F0001A78012A00F0C680022A9FD198785B7856
:1039000043EA0020FDF7B4FA6D4698E7FFF792FE10
:1039100085E753BB217B042990D1A1680878012851
:103920008CD14878012889D18878012886D1C87837
:10393000012883D169498DF80400022091F800C064
:10394000674D0870674985F800C00B70664FF360DB
:103950006D4640F2011133743180052328463A70D8
:103960008DF8003003F070F869E7A268137873707F
:10397000082B3FF663AFDFE803F04B46403A6B613C
:10398000221705006D46082328468DF8003003F005
:10399000B3FB064655480FF09BFB554B414853F887
:1039A00026100FF00FFB4AE7237B032B00F0A880C3
:1039B000072B00F0BD806D46012373703FE7484838
:1039C000464B48490078484A18706D4600230B70F2
:1039D000B381012133708DF804302846052311701E
:1039E0008DF8003003F030F8FFF7E0FD27E73D4A9F
:1039F000002101231170737020E73A4A01231370EC
:103A000073706D461BE7354B02221A706D4616E740
:103A10003348324B007833491870334A00236D46DF
:103A20000B70B381337001218DF8043028460523D3
:103A300011708DF8003003F007F800E76D4604239D
:103A400028468DF8003003F057FB06462948A2E7C8
:103A5000237B224828490370F22B1D464FF00400B7
:103A600028BFF225012B087088BF012301D8E5E6A5
:103A7000A268D25C0133D8B20132A84201F8012F0A
:103A8000F6D3DBE65B78552B7FF4D8AE1B4BAA222E
:103A900002201A606D46FDF793F8D0E6B051010898
:103AA00038000020B0500108840A0020404401087A
:103AB000D8520108085301081C530108305301086B
:103AC0009051010854530108685301085C4A0108E9
:103AD00044530108D8510108E851010812000020A0
:103AE0001300002068050020240000209C520108DB
:103AF0007C000020F05101087404002070030020B5
:103B000005238DF80030517893786D4643EA012300
:103B10002846ADF8043003F0EFFA074613480FF0DB
:103B2000D7FA134B134853F827100FF04BFA43E71B
:103B300005238DF800305178937843EA0123ADF8DE
:103B400004301379D07851791B0243EA00430B43C8
:103B5000642101FB03F302936D4693798DF80C30D9
:103B6000284603F0C9FA07460348D8E72C52010853
:103B70007C000020B05001086452010830B50446B2
:103B800095B03F483F4D0FF0A3FA62783E4B3F4857
:103B900053F822100FF016FA00230AA88DF82830E7
:103BA00002F0FEFDE1683A480FF00CFA39480FF0D8
:103BB0008FFA9DF82C30384A3848D15C0FF002FA61
:103BC00034480FF085FA697835480FF0FBF9A97889
:103BD00034480FF0F7F9AB78FBB92E480FF078FABC
:103BE000A17831480FF0EEF91E2368468DF80030B9
:103BF00002F0D6FD002835D094F903102B480FF0C1
:103C0000E1F9232368468DF8003002F0C9FDC8B100
:103C100020480FF05DFA15B030BD25480FF0D2F9FD
:103C20002B78012B28D12179224A234B23480029C4
:103C300014BF114619460FF0C5F9A9786868FFF757
:103C4000B3FDCAE71E480FF0BDF9019B1D48198856
:103C50000FF0B8F90F480FF03BFA0E480FF038FAA2
:103C600015B030BD2369019A174803EB430352F89E
:103C700023100FF0A7F9BFE714480FF029FADCE78B
:103C8000885301086C04002038000020B05001085F
:103C9000B45301085C4A010894540108E453010834
:103CA000F85301080C5401089051010868540108A8
:103CB000205401087C530108805301083054010846
:103CC0007C5401088C5401085454010844540108E0
:103CD00038B51848184C194D0FF0FAF9FEF7FCFAF0
:103CE000FEF7F8FA164A174B174818492260636026
:103CF000174AA06000231748E160C5E90033EA6075
:103D0000AB600FF0E5F920462946072202F0E4FAFD
:103D1000044630B1104B114853F824100FF052F9FB
:103D2000FEE70F4B0F481C700FF0D2F90E4B01202D
:103D30001C6038BD98540108140A0020740A002041
:103D40007D3B0008F9370008E9360008AD36000869
:103D5000A1330008CC5401087C000020F85401086D
:103D60006605002028550108880500202DE9F0414E
:103D7000974B984A93E8030086B002AD85E80300AC
:103D8000D3E90201126E04AE86E8030002B1904747
:103D9000914F01F0C5FC3B78072B00F21681DFE85C
:103DA00013F0180056005E008B00D500E000F9000B
:103DB000080001A8FEF784FA884B1A78012A08BF88
:103DC000002201A808BF1A70FEF780FA06B0BDE80D
:103DD000F081834C83480FF07BF9834B63600822AA
:103DE0002046227002F030FE804B6360092220469C
:103DF000227002F029FE9DF809209DF808309DF8F8
:103E00000A1013439DF80B200B439DF80C1013432D
:103E10009DF80D200B439DF80E1013439DF80F20C5
:103E20000B43134300F0CD804FF002086C486560EF
:103E300084F8008002F008FE03236948666023705E
:103E400002F002FE87F8008006B0BDE8F081684805
:103E50000FF03EF9FFF73CFF06B0BDE8F081654B7F
:103E60005F4C654800261E600FF032F963496448D4
:103E700008F068FB01251D2320462370257102F000
:103E8000E3FD052320462370267102F0DDFD30227C
:103E9000142320462270636002F0D6FD02F00AFC73
:103EA0002046257002F07CFC00288FD12379002B5E
:103EB0007AD103233B7089E7494C5248524E0FF0A8
:103EC00007F902232046237002F06AFC63684F481A
:103ED00019780FF077F8012563683046595D013590
:103EE0000FF070F8082DF7D14948474E0FF0F0F861
:103EF00003233B48237002F053FC6368454819785C
:103F00000FF060F8012563683046595D01350FF008
:103F100059F8082DF7D1354D3D483F4E2C460FF04E
:103F2000D7F814F8011B3D480FF04CF8103514F881
:103F3000011B30460FF046F8A542F8D138480FF083
:103F4000C7F8FFF733FB06B0BDE8F081354C3648C3
:103F50000FF0BEF8237863BB05233B7006B0BDE8C5
:103F6000F08132480FF0B4F8314B324A1C782448C3
:103F70004EF6602341F28831002C08BF1946072312
:103F800011603B7008F0C0FB1D4808F0E3FA06B072
:103F9000BDE8F081174B284819680FF013F8072384
:103FA0003B7006B0BDE8F0811E4A042315703B70DB
:103FB0000CE7224B1878FFF7FBF9FFF77DFA20702A
:103FC000CAE72846FEF7A0F92EE702233B70FDE67C
:103FD000584401087858010866050020670500204C
:103FE000240A002074550108140000202800002035
:103FF000485501088805002090550108353600080D
:1040000070050020AC550108DC550108C8550108B1
:104010005C4A0108E45501080C560108F8550108EE
:10402000745C010825000020145601082856010878
:10403000840A00206C05002040560108240000205E
:10404000064A07491378D1F8481343F00803137060
:1040500011B1CB6803B11847704700BF9405002029
:10406000480A0320064A07491378D1F8481343F059
:104070000403137011B1CB6803B11847704700BF38
:1040800094050020480A0320064A07491378D1F80E
:10409000481343F00203137011B1CB6803B1184702
:1040A000704700BF94050020480A032010B50A4C51
:1040B00004F5806008F0EEFA94F81A3413B1012385
:1040C00084F81934D4F8483323B1DB6813B1BDE860
:1040D0001040184710BD00BF480A032010B50F4C10
:1040E000D4F8403394F81A2443F08003C4F84033E2
:1040F0007AB994F8242794F88D34022A23F0120315
:1041000043F0120318BF062284F88D3484F88C24FF
:1041100010BD0020FFF7CAFFEBE700BF480A0320ED
:1041200010B5244CD4F8403782B023B1D4F8D03540
:104130000133C4F8D03594F83A37FBB994F88D348C
:10414000990703D594F83134012B09D994F826370F
:1041500033B1D4F8BC355A1C18BF0133C4F8BC3590
:10416000D4F84033002223F002030120C4F8403386
:10417000A4F8182484F81A2402B010BD01A90B2059
:1041800003F00CFB0028D9D1B4F8D635B4F8FC23E1
:1041900001339BB29A42A4F8D635CFD194F88D342E
:1041A00084F83C0743F008030E2284F88D3484F829
:1041B0006C24C3E7480A0320F8B53A4C94F8243736
:1041C000022B07460E4602D0374BDB6A984703F0B6
:1041D00015FA0546A0BB94F82437012B3AD094F881
:1041E0008C34BBB994F81A340BB184F84574384652
:1041F00003F022FCD4F8C00508F0A0FAD4F8BC33D0
:10420000984230D294F82437022B18BF062384F842
:104210008C34F8BD94F81A340BB184F845643046F8
:1042200003F00AFC94F8243794F88D24022B42F012
:10423000100218BF062384F88D2484F88C34F8BD4E
:10424000022003F0CBF9002003F0D0F994F82437D2
:10425000012BD9D103F0D4F988B903F0D3F9C0B94F
:10426000002DBCD0CEE7114808F014FA94F88D2444
:1042700094F8243742F0100284F88D24C4E700201B
:1042800003F0AEF9002003F0B3F903F0BBF9002806
:10429000B8D0002003F0A6F9002003F0ABF994F8A1
:1042A0002437B1E7480A032078580108E80D0320B5
:1042B0002DE9F04717461E468146884608F036FA33
:1042C0000C4B0D4A1C780D4DD2F84823C5F80490CC
:1042D00024F0110444F01104A5F808806F812E73B6
:1042E00028601C7022B1D36813B1BDE8F0471847AD
:1042F000BDE8F08794050020480A03209C0A0020AE
:1043000070B582B008F012FA0E4B0F4C18606D4673
:10431000284608F081FA0D4AD4F84863137895E8E6
:10432000030043F0200304F54E7484E80300137087
:104330002EB1F3681BB102B0BDE87040184702B05F
:1043400070BD00BF980A0020480A03209405002091
:104350002DE9F0414D4CB4F85836D4F84016D4F855
:104360003C06A4F8CC3504F2845304F5C06290B046
:1043700082E80300D3F8CC60D3F8D05094F839C663
:10438000B4F84C76D4F84816D4F84406C3F89060D4
:10439000C3F894504FF00108002504F5C162A4F859
:1043A000107684F8FDC504F5106704F6FC0C04F5DE
:1043B0001E6682E80300CDE903C7059603A984F8C9
:1043C0003C57C4F8BC55C4F8005584F82757A4F8E6
:1043D000185484F81A5484F8CE5584F8295784F870
:1043E0002A57A4F82C878DF8188094F8DC0504F07F
:1043F000A9FBD4F8003684F8D453C4F8D83304F5B4
:1044000075770FCF04F57A760FC694F8112694F8D5
:104410003C3784F8E42384F8E73384F8E55384F8E0
:10442000E683D4F84833396831600222CDE901557A
:1044300084F81B5484F8F98384F8FA231BB15A6872
:10444000DB68CDE90123124A0792A2F14C05A2F1E3
:10445000140402F1210302F5FA7102F5B87008950F
:10446000099402F5BA7502F5FC740A930B9102F5F2
:1044700034730C9002F25C5201A907A8CDE90D54E7
:104480000F9303F0A9F810B0BDE8F081480A0320AB
:10449000B40E032030B5154C83B004F57A75D4F80A
:1044A000E03594F8E42594F90C1694F8DC050095B1
:1044B00004F066FB0223294684F8FA3394F83C574B
:1044C00094F8DC0584F8FB53012304F2244284F8B9
:1044D000F93304F065FB38B1054B00205B6B98475E
:1044E00094F8FA3384F88C3403B030BD480A0320C2
:1044F00078580108F8B53C4E96F82447012C05463B
:1045000004D0022C3CD044B10320F8BD03F084F861
:104510000028FAD186F82457F8BD00283DD001289C
:10452000F4D00228F0D106F5757CBCE80F0006F542
:104530007A770FC7DCF800303B6086F8245707F520
:10454000C67386F8FA5393F8E1201AB193F8F8206D
:10455000022A2CD00134042C03F13003F3D1234B75
:104560000022DB6A86F81A249847FFF793FF96F833
:104570003A3783B11E490122202003F073F80AE084
:104580000028C1D1194B86F82407DB6A984796F8B2
:104590003A37002BEED10020F8BDD6F80006D6F849
:1045A000041606F5C16686E803000320F8BD04EB97
:1045B000440406EB041396F81106D3F8802693F80A
:1045C000845696F81B44C6F8082603210123C6F832
:1045D000EC2386F80C5686F8E84386F8F80386F84C
:1045E000FA1386F8F933BAE7480A03207858010825
:1045F0006C11032070B50B4E0B4D0C4608F04AF8B9
:10460000336B984795F8DC05214605F2244204F007
:10461000C7FA30B1736BD5F8E8059847A37C85F8E5
:104620008C3470BD78580108480A032030B40E4B12
:10463000002293F81B1493F8FD0593F8115693F894
:104640003C4783F8C01383F8C30383F8D05383F83F
:10465000D34383F8D22330BC03F5707103F5627045
:1046600083F8D123FFF7C6BF480A0320114B93F804
:104670008C2402B9704730B493F81B4493F81106A8
:1046800083F8D44393F83C27D3F8001683F8E40367
:104690000124002583F8E64383F8E723C3F8D81301
:1046A00083F8E55303F5757130BC03F56870FFF7C7
:1046B000A1BF00BF480A03202DE9F04F5C4C87B032
:1046C0000025CDE90155BDF840A025800746884664
:1046D00091461E4684F81A54002B4CD05FFA8AFB90
:1046E000544852463146FEF7C9FB84F837B23B784E
:1046F000A3703D786D09042D07D0072D3ED0022D03
:1047000006D0022007B0BDE8F08F012384F81A34E8
:10471000042384F80431484DC4F80851FF2384F879
:104720000C313A78D4F8603684F80D2184F8289159
:10473000C4F8103198F8003084F8143101A805F558
:104740009B73C4F82C3184F830B103F019FC034694
:1047500020BB019AA4F8483402A8A4F81621C4F892
:10476000502403F09DF800284BD1029BD3B90020C0
:1047700007B0BDE8F08F9B469A46B1E7002EF6D011
:10478000BBF1000FF3D02D485FFA8AF23146FEF7F5
:1047900075FB94F8373201332380E8E7122007B025
:1047A000BDE8F08F94F9CD3594F810268DF81130CE
:1047B00094F8DC058DF812200D2304A98DF8103033
:1047C00004F0B0F994F837325BB1029B0F2B1CD97F
:1047D00005F2025202A9C0B203F06EF888B90A20AD
:1047E00090E705F2025502A9C0B22A4603F064F828
:1047F00038B9029B84F82801C4F82C5184F8303170
:1048000080E7132007B0BDE8F08F05F58B7202A991
:104810000F2003F051F80028F3D198F80030029AE5
:1048200062F3030388F8003084F814316AE700BFAC
:10483000480A0320800B03204A0A03204B0A032066
:10484000F0B54F4C04F2845387B0D3F8905094F8ED
:10485000CD6594F8CC252188D3F89470039504F2A3
:104860001C4305468DF808008DF809608DF80A2074
:10487000ADF814100DF1030202A994F8DC050497B9
:1048800000268DF8036004F095F9D4F81C3494F8F0
:10489000CD159DF80320C4F85454012084F8450434
:1048A00084F8461484F84724C4F84C34C4F85C34C3
:1048B00002F0AAFEA0B994F82437012B5BD002F0D5
:1048C000A7FE94F8043194F9CD5594F81B640020A8
:1048D0000190042B4CD8DFE803F0373F454B0B0029
:1048E000D4F81C0402F0A8FE0028E4D0102029E02F
:1048F00001A803F045FB002840D194F81834019832
:104900000BB1013801901F4B3246E9B203F04EFC67
:10491000F8B994F81834D4F840531B4A94F80C11A1
:104920001A48926A21800133DBB245F00206002565
:1049300084F8183484F84934C4F84063C4F8005546
:104940009047284607B0F0BD0E4803F081FB0028D1
:10495000DFD0112007B0F0BD0A4803F0CDFB0028DE
:10496000D7D0F6E7074803F0F5FB0028D1D0F0E7F1
:10497000032007B0F0BD02F061FEA0E71220E1E7DE
:10498000480A0320500B0320785801084A0A0320E4
:10499000F0B591B0064602F031FE00287FD17A4C86
:1049A00094F82437012B00F08380D4F8C43543B940
:1049B000B4F82C27D4F81C34013A03FB02F3C4F8F2
:1049C000C43594F80431002B62D0042B03D00325A6
:1049D000284611B0F0BD6D4804F02CF800285CD1D9
:1049E00094F80C31D4F8C41594F8CD25238008AF81
:1049F00094F828370A9138468DF830208DF83230F7
:104A000007F030FFD4F83437009302AD97E8060082
:104A10002846D4F8303707F0BFFE95E80300D4F8F5
:104A2000C0350B9394F83C272588ADF83E500DAB6C
:104A300083E80300002701238DF83C708DF83130A6
:104A40008AB3534F94F8DC0500976FF4D472A7F142
:104A5000C803BA180AA904F0F5F8054690B30B2864
:104A6000B6D1002EB4D0D4F8FC54002DB0D0D4F878
:104A70004033294643F02003A7F51570C4F84033AE
:104A800007F042FEA7F5157007F064FD00259FE7CB
:104A90003E4803F021FF0028A2D0112598E70E25FB
:104AA000284611B0F0BD8DF83C308DF83120C8E7B4
:104AB00002F0A6FD20B902F0A5FD00283FF475AF75
:104AC0000F2585E794F8DC6594F9FD3594F9CD253B
:104AD00094F81116304604F0C5F8A7F5017341B2F9
:104AE00094F8E42500933046D4F8E035A7F5F8773C
:104AF00004F046F8D4F8E03594F8E42594F9041667
:104B000094F8DC05009704F03BF8D4F8CC03D4F813
:104B1000EC25D4F8E013D4F8F03594F83C6702445F
:104B20000B44C4E9EE23F6B104A8049502F0B8FEE4
:104B300038BB94F9CD3594F810268DF8193094F8D7
:104B4000DC0594F837529DF810608DF81A200D237B
:104B500006A98DF8183003F0E5FF3544C0B2A8422D
:104B600009D2082534E7D4F8F425D4F8F8350244FE
:104B70000B44C4E9EE2394F81B04FFF761FE0546DD
:104B800026E7132524E700BF480A0320500B032023
:104B90000C10032010B5174C04F55C7007F07AFD7B
:104BA000D4F84033D4F8000523F02003C4F8403390
:104BB000B8B90120FFF7ECFE08B10B2800D110BDF9
:104BC00094F8CD2594F8183484F84624092084F804
:104BD000450484F8493402F02FFFBDE81040FFF788
:104BE0009FBA07F0ABFDB0F5FA5FE2D9002384F875
:104BF000CE3510BD480A03202DE9F047404C8AB05D
:104C000094F83CA7D4F8BCE5B4F8CCC5B4F8CC858E
:104C1000CDF810E0BAF1000F6ED0994694F827371E
:104C200005460E4617469CFA9CFC0BB9C4F8C435E1
:104C300094F8243794F8262794F8CE05A3F10103BD
:104C4000B3FA83F3D1015B0963F304118DF80C10FF
:104C5000002839D12B4BD4F8FC03ADF820C04FF01D
:104C6000010C8DF815208DF814C004AA94F8FCC529
:104C7000079094F810060092A3F12F01A3F13002DF
:104C80008DF822C08DF8230094F8DCC58DF824C07F
:104C900005A8CDF818E002F025FC9DF80CC0CDF871
:104CA0000090014661F3861C3B463246284603A924
:104CB0008DF80CC0FFF700FD60B10A280AD0A4F8F7
:104CC000CC850AB0BDE8F087CBB243F020038DF865
:104CD0000C30BFE70020FFF75BFE0028EFD1049BFC
:104CE00084F8CE05C4F8BC3502F06AFD002818BF70
:104CF00013200AB0BDE8F08707200AB0BDE8F087AE
:104D0000480A032044100320F8B502284FF000059C
:104D100004462E4657D030D8002854D0414C0623A4
:104D2000A11CFF2263F34716012384F8543784F84B
:104D3000043184F80E31C4F8081184F80C2184F889
:104D40000D6105F0C5FA0822014604F20F10FEF7C6
:104D500095F805F0A7FA0822014604F21710FEF7AD
:104D60008DF804F59071092003F03EF9002857D121
:104D7000BDE8F8400120FFF70BBEFF28F8D1294F0E
:104D80002846FFF7B7FB65F34716BB1CC7F8083189
:104D900087F80D6187F8045187F80C4105F098FAFF
:104DA0000822014607F58770FEF768F805F07AFAE1
:104DB0000822014607F58B70FEF760F82846BDE82B
:104DC000F840FFF7E5BD174D0221D5F85C3685F8B0
:104DD00004110622012062F347166A1885F8540769
:104DE000190AFF20C5F808211A0C85F80F3185F83B
:104DF000101185F8112185F80E4185F80C0185F810
:104E00000D6105F04FFA0822014605F58970FEF79D
:104E100035F805F58D71082003F0E6F80028A7D0D5
:104E20001120F8BD480A032010B50F4C94F8D43572
:104E300094F844279A4211D00133DBB294F8452705
:104E400084F8D435012A04D9BDE810400220FFF7C8
:104E50005BBFBDE810400020FFF756BF04F59B6024
:104E600007F018FC0123E9E7480A032010B50E4CAF
:104E700004F5986007F00EFCD4F850370B4A9342C3
:104E800005D94FF47A7202FB03F3C4F8F834022018
:104E9000FFF73AFFD4F8F814054807F035FCBDE8F1
:104EA0001040034807F056BB480A032037894100E9
:104EB000080F032010B50E4C04F5956007F0EAFBCF
:104EC000D4F84C370B4A934205D94FF47A7202FB5F
:104ED00003F3C4F8F4340120FFF716FFD4F8F414F8
:104EE000054807F011FCBDE81040034807F032BB4D
:104EF000480A032037894100F00E032010B50E4CFC
:104F000004F5926007F0C6FBD4F848370B4A934289
:104F100005D94FF47A7202FB03F3C4F8F034002091
:104F2000FFF7F2FED4F8F014054807F0EDFBBDE8FA
:104F30001040034807F00EBB480A032037894100A0
:104F4000D80E03202DE9F04F93B04FF00009012B4C
:104F500003928DF81990ADF81C904ED88846002920
:104F60004BD0DFF8F8B206464C46305D02F0DCFC70
:104F70002044404541DC335D651C013BEDB21F2BF5
:104F80003BD8DFE813F06F025902800244020D02A1
:104F90002000D501BA016D01370126010E01000183
:104FA000CA00A8009500720068004B003A003A0061
:104FB0003A003A003A003A003A003A003A003A0021
:104FC0003A003A003D00A24FD7F84833002B00F0DA
:104FD000FD821B68002B00F0F9829847039B8DF837
:104FE0001C0003F03F03022207A906202C468DF87F
:104FF0001D3002F037FBA045B7D813B0BDE8F08FE5
:10500000023409A92020E4B202F0C8FB0028F2D142
:10501000099802F08FFBA045A7D8EEE7E31CA21C7D
:10502000DBB2D2B2F35CB25C705D1B0443EA0223D4
:105030000343642000FB03F002F0FCFA043403464F
:10504000E4B2012207A913208DF81C3002F00AFBFC
:10505000A0458AD8D1E70C2002F00CFD002840F0D2
:105060004C822C46A04580D8C7E7E31CA21CD2B2D4
:10507000DBB2B05CF35C715D221DD2B21B0443EA6B
:105080000023B05C0B43642101FB03F100F00F002F
:1050900002F0CAFA05340346E4B2012207A911203E
:1050A0008DF81C3002F0DEFAA0453FF65EAFA4E7B3
:1050B0000B2002F0DFFC0028D3D0654F0B2100202D
:1050C00002F07EFC97F88C34043B012BC9D902F026
:1050D000A9FA2C468FE7735D5E485D4F1A090125DA
:1050E00003F00F030A3205FA02F10433023405FA21
:1050F00003F38142E4B2C7F84037C7F8481700F31A
:10510000D7810025012207A90F208DF81C5002F03D
:10511000A9FAA0453FF629AF6FE7755D4C4FA31C78
:1051200005F00702DBB287F84427F25CC2F30212F3
:1051300087F84527F35C202103F00F03002087F850
:10514000CD35FDF77BFEC5F3C2052023414AAB40B8
:105150001844904286BF4FF47A71414300213E4883
:1051600007F0D2FA97F84537012B94BF00200220B0
:105170000334FFF7C9FDE4B2374807F0EBF9A04567
:105180003FF6F3AE39E7082002F074FC002840F047
:10519000CF812F4F2C46A04587F83C043FF6E5AE63
:1051A0002BE7735D2A4F1A0903F00F01012303FA5D
:1051B00001F102349340A7F8FE130022E4B207A9DC
:1051C0000C20A7F8FC3302F04DFAA0453FF6CDAE17
:1051D00013E71F4F725D97F83A3702349A42E4B2F0
:1051E0003FF609AF09A90B2002F0D8FA00287FF496
:1051F00002AF0DE7E21CD2B2231DB15C725D8DF8E7
:105200003820DBB2A21CF35C114FD2B21B04B25C9B
:1052100097F8DC0543EA01231343642202FB03F3FE
:105220000F930EA903238DF8193003F0F9FC053410
:10523000C3B20028E4B28DF81930FFF6DCAE0122CB
:1052400007A90A208DF81C3002F00CFAD3E600BF43
:10525000480A032037894100200F0320CDCCCCCC55
:10526000735DB04F00228DF8202013F0200218BF8C
:1052700001228DF82120DA0648BF012203F00F0336
:1052800097F8DC0548BF8DF8202008A98DF822305A
:1052900003F0BEFC02340130E4B23FF4ACAEA249EC
:1052A0009DF822209DF820308A5C8DF83A3007EE78
:1052B000902AF8EE677A07F28453BDF82020C3EDF8
:1052C000247A0EA9022397F8DC05A7F810268DF89A
:1052D000383003F027FC97F9CD350A9040B2984258
:1052E000B8BF184687F8CD05002207A9092002F0AB
:1052F000B9F9A0453FF639AE7FE6735D894F03F0FB
:105300000F03012B38BF01234FF47A7202FB03F322
:1053100099180234C7F8F0150022E4B207A9082052
:10532000C7F8EC3502F09EF9A0453FF61EAE64E6E4
:10533000E21CD2B2231DB15C725D8DF82C20DBB271
:10534000A21CF35C774FD2B21B04B25C97F8DC0569
:1053500043EA01231343611D642202FB03F3C9B234
:105360000E930323725C8DF819300DF1380A002377
:105370000AA90F938DF84020CDF828A003F040FC37
:105380000634C3B20028E4B28DF81930FFF633AE0C
:10539000012207A907208DF81C3002F063F92AE6E4
:1053A000231DE21CDBB2D2B2A11CF35CB05C725DC7
:1053B0005C4FC9B21B04715C43EA00230B436421B8
:1053C00001FB03F3C2F302110F9302F00F02072354
:1053D0008DF8391097F8DC058DF838200EA98DF876
:1053E000193003F005FC00F007020534072AE4B287
:1053F00003468DF8190070D0012207A905208DF809
:105400001C3002F02FF9A0453FF6AFADF5E5735D16
:10541000444F03F00F03012199400234A7F82C17E1
:105420000022E4B207A9042087F8273702F01AF90E
:10543000A0453FF69AADE0E5042002F01BFB0028F2
:105440003FF40FAE374F0421002002F0B9FA735D2C
:1054500087F86034A31CDBB20334F35C87F8613453
:10546000E4B2C8E52F4F725D97F83A3702349A429A
:10547000E4B23FF6C0AD09A9012002F08FF900287F
:105480007FF4B9ADC4E500238DF81A308DF81B30D8
:105490008DF820308DF82830B9F1000F00F0988099
:1054A0000534E4B2A0454FF001093FF65EADA4E536
:1054B0004FF47A7303FA02F207F59260C7F8F0240A
:1054C00007F0E8F807F59260D7F8F01407F01CF938
:1054D00007F5926007F03EF814E69DF838100F9A31
:1054E00087F8041687F80C169DF83910C7F80026BF
:1054F000C7F8082687F8FD157EE70C21002002F08A
:105500005FFAA21CD2B2E31C715DB05C074ADBB249
:1055100041EA00201268F15C0434E4B202F086F83B
:1055200069E500BF480A03205C5601089C0A002078
:105530000821002002F044FAE31CA21CD2B2DBB224
:1055400016F802C0F35C705D5F4F221D611DD2B280
:105550001D04C9B245EA0C25B25C715C054345EAFD
:1055600002654FF47A7303FB01F30DF1380A05F17C
:1055700096551B120022504605F5A915ADF82C30A2
:10558000ADF82E2005F5EC5507F046F9D7F83C3379
:105590000A9500930AADD5E90012D7F838330CA864
:1055A00007F0FAF80D9B00939AE806000C9B28463A
:1055B00007F0D4F895E8030007F00CF9063402F080
:1055C00037F80123E4B287F83C3414E5FF2005E501
:1055D0000AAA04923C4F08F101026B1E0DF1380A31
:1055E0000DF120090592334497F8CD1597F8262739
:1055F0000F9397F8CC3597F810068DF843108DF877
:10560000443097F8FC15D7F838378DF842208DF8DC
:1056100041008DF845100E93002A4FD0059BA3EB57
:10562000050C5FFA8CFC049B97F8DC058DF840C0F4
:10563000CDE900930DF11A020DF11B03514603F061
:10564000C7FA00F00703072B8DF8190013D197F95B
:10565000CD259DF91A3087F8CD359A42B8BF012281
:105660009DF82030B8BF87F829279DF81B2087F8C0
:10567000CC2587F8FC359DF82820042A88BF002413
:105680000ED901220DF11901032001F0EBFF9DF865
:1056900028200134E3B2ABFB0201B3EB910FF0D34E
:1056A0001544EDB26B1EDAB290450AD9B15C0329FC
:1056B00099D01446A84598BF2C46F3E64FF0050C48
:1056C000B1E71446EEE600BF480A0320B0B1A9B125
:1056D000037B13F00F0307D190F82820AAB9012308
:1056E0000B7000231846704790F820304BB990F8A3
:1056F0002830002BF3D01723184670470323184691
:10570000704700230B701846704790F8202012B99C
:1057100002220A70E6E703220A701846704700BFAB
:105720002DE9F04FC74DA9B008A8FCF7C9FD2C68BA
:10573000002308A82B60FCF7C9FD002C40F08E80E8
:10574000C14C01F07FFF94F88D34D8065ED5D4F8B3
:105750004023002184F88E14110644BF22F08202F7
:10576000C4F8402313F0050F40F005815D0700F1F8
:105770005F8203F00102002A00F0438294F844247F
:10578000002A00F02C81032A00F02981012A00F070
:10579000378494F88D3400206FF3041384F88D342B
:1057A00084F81904FFF7F6F9D4F840332BBB94F8CA
:1057B0008D54EA0740F1F88094F88D346FF30003BC
:1057C00084F88D34DAB25B0740F1A3836FF3820271
:1057D000012384F88D2484F88E34D4F844339B4814
:1057E0001B6898476F0700F1EB8001F013FF94F8F6
:1057F0008D346FF3041384F88D3494F88D340122C2
:1058000043F0200384F88D3484F88E241E070CD5D1
:1058100094F88D34D4F844238D48D2686FF3C303D1
:1058200084F88D34904794F88D349D070AD594F808
:105830008D34D4F84423874852686FF3410384F8C9
:105840008D34904794F88C34022B00F0918094F8BA
:105850008D34980619D429B0BDE8F08F14F0200FCC
:10586000E6B2794C40F00A81F70600F15581330722
:1058700000F1A781770700F1E080B5077FF561AF00
:1058800004210320FEF798FC5BE7D4F840536FF344
:10589000451384F88D34002DDDD134216E48FDF799
:1058A00017FBD4F8B835984218BFC4F8B8054FF0C4
:1058B0001C016A4818BF0125FDF70AFBD4F8D8354A
:1058C000984218BFC4F8D8054FF4BE71644818BF99
:1058D00045F00205FDF7FCFAD4F85837984218BF96
:1058E000C4F858074FF4CE715E4818BF45F0040560
:1058F000FDF7EEFAD4F8F838984218BFC4F8F80863
:105900004FF00001584818BF45F00805FDF7E0FAD0
:10591000D4F8FC38984218BFC4F8FC084FF0C40112
:10592000524818BF45F01005FDF7D2FAD4F8C43933
:10593000984218BFC4F8C4094FF014014C4818BF6E
:1059400045F02005FDF7C4FAD4F8DC399842D4F8C4
:1059500048331CBFC4F8DC0945F04005002B3FF478
:105960007AAF9B68002B3FF476AF2846984772E7E2
:10597000FEF790FD6BE70A2002F07CF894F88D3476
:1059800000283FF4F3AEDF0700F14F815E0740F1DE
:105990003881D4F8403323F00203C4F84033002B9D
:1059A0007FF42BAF94F88D54690740F12D8194F862
:1059B0008D3401226FF3820384F88D3484F88E24B1
:1059C0002C4802F075F802F0CBF800283FF40DAF38
:1059D00094F88D3443F0040384F88D3405E794F88B
:1059E000181494F8FC25914207D298077FF5D1AEA0
:1059F00094F83134012B3FF6CCAE1F4806F04AFE36
:105A0000D4F8403323F02003C4F84033FEF788FB7A
:105A1000D4F84037D4F8D02593427FF4C5AE94F83B
:105A20003A27002A3FF4C0AE002B3FF4BDAE002061
:105A3000C4F8D005FFF768F9B6E606210520FEF7A1
:105A4000BBFB1AE794050020480A03208C0E0320B4
:105A5000B40E0320680E0320CC0F03200410032093
:105A600024100320A411032044130320481303200F
:105A700010140320A00E0320B80D032094F824373F
:105A8000022B02D0C94BDB6A9847D4F8B813C84838
:105A900006F03AFEC64806F05DFDD4F8BC13C548D2
:105AA00006F032FEC34806F055FD94F81A34002B78
:105AB00040F0D18084F84534BF4B94F81B241B6818
:105AC000C4F8C0350DF1340840461D938DF87020A0
:105AD00006F0C8FED4F83437009304AF98E8060007
