:020000040800F2
:100000000030002031D80008ADD60008B1D6000875
:10001000B5D60008B9D60008BDD60008000000001B
:10002000000000000000000000000000C1D6000831
:10003000C5D6000800000000C9D60008CDD60008CB
:1000400085D8000885D8000885D80008D1D60008D2
:1000500085D8000885D80008F9200008012100088B
:10006000092100081121000805D7000815D700084C
:1000700085D8000885D80008D5D6000885D800089E
:1000800085D8000885D8000821D7000800000000A6
:100090000000000085D8000885D800081921000854
:1000A00085D8000885D8000885D8000885D80008BC
:1000B00085D8000885D8000885D8000885D80008AC
:1000C000000000000000000085D8000800000000CB
:1000D000E1D6000885D800080000000085D8000897
:1000E00041210008EDD600080000000085D8000876
:1000F000F9D60008FDD6000801D7000885D8000809
:1001000085D800080000000000000000000000008A
:1001100085D8000885D8000885D8000800000000B0
:1001200000000000000000000000000000000000CF
:0C013000000000000000000085D800085E
:1001400010B5054C237833B9044B13B10448AFF311
:1001500000800123237010BD040300200000000074
:100160004067010808B5034B1BB103490348AFF3CF
:10017000008008BD0000000008030020406701085F
:1001800001F0FF01102A2BDB10F0070F08D010F848
:10019000013B013A8B422DD010F0070F42B3F6D14C
:1001A000F0B441EA012141EA014122F007047FF065
:1001B00000070023F0E80256083C85EA010586EABC
:1001C000010685FA47F5A3FA87F586FA47F6A5FAF8
:1001D00087F68EB9EED1F0BC01F0FF0102F0070204
:1001E00032B110F8013B013A83EA010313B1F8D1AF
:1001F0000020704701387047002D06BF3546033890
:10020000073815F0010F07D1013015F4807F02BFC8
:10021000013015F4C03F0130F0BC0138704700BF19
:1002200081F0004102E000BF83F0004330B54FEAA7
:1002300041044FEA430594EA050F08BF90EA020F14
:100240001FBF54EA000C55EA020C7FEA645C7FEAA7
:10025000655C00F0E2804FEA5454D4EB5555B8BFCA
:100260006D420CDD2C4480EA020281EA030382EA3B
:10027000000083EA010180EA020281EA0303362DCD
:1002800088BF30BD11F0004F4FEA01314FF4801CA0
:100290004CEA113102D0404261EB410113F0004FB2
:1002A0004FEA03334CEA133302D0524263EB430369
:1002B00094EA050F00F0A780A4F10104D5F1200E07
:1002C0000DDB02FA0EFC22FA05F2801841F1000162
:1002D00003FA0EF2801843FA05F359410EE0A5F136
:1002E00020050EF1200E012A03FA0EFC28BF4CF067
:1002F000020C43FA05F3C01851EBE37101F000451D
:1003000007D54FF0000EDCF1000C7EEB00006EEB29
:100310000101B1F5801F1BD3B1F5001F0CD34908B3
:100320005FEA30004FEA3C0C04F101044FEA44520A
:1003300012F5800F80F09A80BCF1004F08BF5FEA91
:10034000500C50F1000041EB045141EA050130BD71
:100350005FEA4C0C404141EB0101013C28BFB1F583
:10036000801FE9D291F0000F04BF01460020B1FACE
:1003700081F308BF2033A3F10B03B3F120020CDAA1
:100380000C3208DD02F1140CC2F10C0201FA0CF07F
:1003900021FA02F10CE002F11402D8BFC2F1200CE4
:1003A00001FA02F120FA0CFCDCBF41EA0C0190409A
:1003B000E41AA2BF01EB0451294330BD6FEA0404E3
:1003C0001F3C1CDA0C340EDC04F11404C4F12002CE
:1003D00020FA04F001FA02F340EA030021FA04F3E0
:1003E00045EA030130BDC4F10C04C4F1200220FA37
:1003F00002F001FA04F340EA0300294630BD21FA75
:1004000004F0294630BD94F0000F83F4801306BF3A
:1004100081F480110134013D4EE77FEA645C18BF2E
:100420007FEA655C29D094EA050F08BF90EA020FC5
:1004300005D054EA000C04BF1946104630BD91EABD
:10044000030F1EBF0021002030BD5FEA545C05D1C0
:100450004000494128BF41F0004130BD14F58004FF
:100460003CBF01F5801130BD01F0004545F0FE4173
:1004700041F470014FF0000030BD7FEA645C1ABFA8
:10048000194610467FEA655C1CBF0B46024650EADF
:10049000013406BF52EA033591EA030F41F400210B
:1004A00030BD00BF90F0000F04BF0021704730B591
:1004B0004FF4806404F132044FF000054FF0000166
:1004C00050E700BF90F0000F04BF0021704730B527
:1004D0004FF4806404F1320410F0004548BF4042FC
:1004E0004FF000013EE700BF42004FEAE2014FEA51
:1004F00031014FEA02701FBF12F07F4393F07F4F2C
:1005000081F06051704732F07F4208BF704793F02E
:100510007F4F04BF41F40021704730B54FF4607441
:1005200001F0004521F000411CE700BF50EA010244
:1005300008BF704730B54FF000050AE050EA0102ED
:1005400008BF704730B511F0004502D5404261EB5D
:1005500041014FF4806404F132045FEA915C3FF49E
:10056000D8AE4FF003025FEADC0C18BF03325FEA3B
:10057000DC0C18BF033202EBDC02C2F1200300FAEC
:1005800003FC20FA02F001FA03FE40EA0E0021FA11
:1005900002F11444BDE600BF4FF0FF3C06E000BF8F
:1005A0004FF0010C02E000BF4FF0010C4DF804CDFC
:1005B0004FEA410C7FEA6C5C4FEA430C18BF7FEABC
:1005C0006C5C1BD001B050EA410C0CBF52EA430CEA
:1005D00091EA030F02BF90EA020F0020704710F16A
:1005E000000F91EA030F58BF994208BF90422CBFF9
:1005F000D8176FEAE37040F0010070474FEA410CF2
:100600007FEA6C5C02D150EA013C07D14FEA430C0F
:100610007FEA6C5CD6D152EA033CD3D05DF8040B80
:10062000704700BF8446104662468C4619466346B2
:1006300000E000BF01B5FFF7B7FF002848BF10F189
:10064000000F01BD4DF808EDFFF7F4FF0CBF0120CE
:1006500000205DF808FB00BF4DF808EDFFF7EAFF4A
:1006600034BF012000205DF808FB00BF4DF808ED05
:10067000FFF7E0FF94BF012000205DF808FB00BFFA
:100680004DF808EDFFF7CEFF94BF012000205DF884
:1006900008FB00BF4DF808EDFFF7C4FF34BF012091
:1006A00000205DF808FB00BF4FEA410212F500127E
:1006B00015D211D56FF47873B3EB625212D94FEAA9
:1006C000C12343F0004343EA505311F0004F23FA93
:1006D00002F018BF404270474FF00000704750EAE8
:1006E000013005D111F0004008BF6FF000407047A5
:1006F0004FF00000704700BF53B94AB9002908BF46
:1007000000281CBF4FF0FF314FF0FF3000F06EB9F2
:10071000ADF1080C6DE904CE00F006F8DDF804E058
:10072000DDE9022304B070472DE9F047089D044637
:100730008C46002B40F083808A42174647D9B2FA94
:1007400082F242B1C2F1200024FA00F091409740B9
:1007500040EA010C94404FEA1748230CBCFBF8F622
:100760001FFA87FE08FB16C143EA014306FB0EF1A0
:10077000994209D9FB1806F1FF3080F0198199429E
:1007800040F21681023E3B445B1AA4B2B3FBF8F080
:1007900008FB103344EA034400FB0EFEA64509D9CA
:1007A0003C1900F1FF3380F00581A64540F202813B
:1007B00002383C4440EA0640A4EB0E0400261DB17A
:1007C000D4400023C5E900433146BDE8F08702B9B3
:1007D000FFDEB2FA82F2002A50D1CB1B4FEA174E4D
:1007E0001FFA87F80126B3FBFEFC210C0EFB1C331D
:1007F00041EA034108FB0CF38B4207D979180CF14D
:10080000FF3002D28B4200F2E9808446C91AA3B2BB
:10081000B1FBFEF00EFB101143EA014408FB00F8A7
:10082000A04507D93C1900F1FF3302D2A04500F2E0
:10083000D9801846A4EB080440EA0C40BFE78B427D
:1008400009D9002D00F0B1800026C5E9000130462D
:100850003146BDE8F087B3FA83F6002E4AD18B42C9
:1008600002D3824200F2B880841A61EB03010120B6
:100870008C46002DA8D0C5E9004CA5E7C2F12003A5
:1008800020FA03F6974001FA02F04FEA174ED940DA
:100890003043030CB1FBFEF61FFA87F80EFB16116E
:1008A00043EA014306FB08F1994204FA02F409D92C
:1008B000FB1806F1FF3C80F08D80994240F28A805F
:1008C000023E3B445B1A81B2B3FBFEF00EFB1033D9
:1008D00041EA034100FB08F38B4207D9791800F184
:1008E000FF3C73D28B4271D902383944CB1A40EAAB
:1008F000064678E7C6F1200C03FA06F422FA0CF358
:100900001C4320FA0CF701FA06F34FEA144E21FAC1
:100910000CF11F433B0CB1FBFEF91FFA84F80EFBF0
:10092000191143EA014109FB08FA8A4502FA06F265
:1009300000FA06F308D9611809F1FF3048D28A4558
:1009400046D9A9F102092144A1EB0A01BFB2B1FBCA
:10095000FEF00EFB101147EA014700FB08F8B8450E
:1009600007D9E71900F1FF312ED2B8452CD902384A
:10097000274440EA0940A7EB0807A0FB02894F453E
:10098000C64649461AD317D05DB1B3EB0E0267EBEA
:10099000010707FA0CFCF2404CEA0202F740C5E9F5
:1009A000002700263146BDE8F0872E4628460BE793
:1009B0000646E9E61846FDE64345E5D2B8EB020EE9
:1009C00069EB04010138DFE70846D2E760468DE7AE
:1009D0008146B9E7664675E730464AE7ACF1020C56
:1009E000394413E702383C4424E700BF704700BF96
:1009F00008B547F2AC53C0F60103DB6A984740F2F2
:100A00005E33C2F20003042246F634001A70BDE8D9
:100A10000840C0F6010014F0F5BC00BF08B547F26D
:100A2000AC53C0F60103DB6A984740F25E33C2F272
:100A30000003052246F640001A70BDE80840C0F6E3
:100A4000010014F0DFBC00BF08B547F2AC53C0F69C
:100A50000103DB6A984740F25E33C2F200030222D0
:100A600046F650001A70BDE80840C0F6010014F0C8
:100A7000C9BC00BF08B547F2AC53C0F60103DB6A3E
:100A8000984740F25E33C2F20003032246F660004C
:100A90001A70BDE80840C0F6010014F0B3BC00BFF6
:100AA00040F2203008B5C2F200000AF0DDFE40F24C
:100AB0002030C2F200004FF47A610AF011FF40F2D8
:100AC0002030C2F200000AF02DFE40F25E33C2F286
:100AD00000031A780AB906221A7008BDF0B547F269
:100AE000AC54C0F6010483B0E76A01900E461D467F
:100AF0001446B84740F20803C2F2000340F64430FF
:100B000001991E803246C2F2000014F0DFFB40F271
:100B10005C33C2F2000360B218700BF0ADFA2846E5
:100B20000BF0B0FA0BF0B4FA40F25D3240F25E33F3
:100B3000C2F20002C2F200030121157019700BF01D
:100B4000B5FA46F66C00C0F6010003B0BDE8F0400F
:100B500014F058BC2DE9F0438BB001F07DF946F656
:100B60007800C0F6010014F04DFC47F2AC5640F29C
:100B70003830C2F20000C0F6010640F6F11540F62A
:100B8000DD2440F61D2140F6492240F67523C0F6CB
:100B90000001C0F60002C0F60005C0F60004C0F671
:100BA0000003C0E90114C0E90323056033689847D6
:100BB00046F6A800C0F6010014F024FC4DF64020D3
:100BC000F368C3F28E30984746F6B400C0F60100D1
:100BD00014F018FCF269002401254FF47A734FF0E9
:100BE00008094FF00C08CDE90743CDE90544234639
:100BF0001746039422462846162104950195CDF800
:100C00000890CDF80080B847052342462146CDE93B
:100C10000845CDE90644CDE90445CDE900490394F2
:100C2000029328462B46B469A047736D28460A21D3
:100C3000984746F6C800C0F6010014F0E3FB0BF03D
:100C400079FAF8B146F6D800C0F6010014F0DAFBE4
:100C5000736B4FF4FA60984740F26033C2F20003BE
:100C600046F6E40041F28832C0F601001A6014F042
:100C7000C9FB46F63C10C0F601000BB0BDE8F043DE
:100C800014F0C0BB40F25E3240F26033C2F20002A8
:100C9000C2F2000340F6A12140F220300625C0F642
:100CA0000001C2F2000040F2DC5415701C600AF032
:100CB00031FD40F220304FF47A61C2F200000AF0B8
:100CC0000FFE40F22030C2F200000AF02BFD46F683
:100CD0001010C0F6010014F095FBCAE7F0B540F221
:100CE0005E34C2F200048DB02378013B052B00F284
:100CF0003481DFE803F0B20303335F7C46F6E4108F
:100D0000C0F6010014F07EFB0BF014FA002800F08E
:100D10001F8147F2AC550021C0F60105CDE907114E
:100D2000CDE903110123AE69099305270822059334
:100D3000184606910091CDE901270C22B04740F2F8
:100D40006033C2F200036A6B186890470023237077
:100D50002B6E6BB30DB0BDE8F040184747F2AC55B1
:100D6000C0F6010546F6D810C0F6010014F04AFBA3
:100D7000A9690B910026012305270822CDE9012747
:100D800018460993059331460C22CDE90766CDE953
:100D900003660B9F06960096B84740F26033C2F296
:100DA00000036A6B186890472B6E2670002BD1D118
:100DB0000DB0F0BD46F6F810C0F6010014F022FBAD
:100DC0000BF0B8F90028A4D147F2AC55C0F60105E4
:100DD0000123CDE90700CDE903000690009001460C
:100DE000AE6909930527082205931846A3E746F63E
:100DF0000420C0F6010014F005FB40F2080646F698
:100E00001420C0F60100C2F2000614F0FBFA40F60E
:100E10004432C2F2000231885020492310705370CE
:100E20004E20472304299070D37007D90332043928
:100E3000002302F8013F01338B42FAD147F2AC554F
:100E40000120C0F601050AF029FC40F64430317853
:100E5000AB6AC2F20000984778E746F66010C0F629
:100E6000010014F0CFFA40F25C3240F25D33C2F27E
:100E70000002C2F2000392F9002093F900300093BF
:100E800046F66C101146C0F6010014F035FA0BF06E
:100E900051F9002844D040F20806C2F20006338817
:100EA000002B55D040F64437C2F2000746F6242105
:100EB0003846C0F60101042214F0CCFA0546002899
:100EC00046D146F69810C0F6010014F09BFA502265
:100ED00033883A704F227A704E22BA70042B4FF04A
:100EE0004702FA7007D90337043B284607F8010F79
:100EF00001308342FAD147F2AC550120C0F601051A
:100F00000AF0CCFB40F644303178AB6AC2F2000004
:100F1000984746F6AC10C0F6010014F073FA15E7D6
:100F200040F20803C2F200031B888BB146F62C2165
:100F300040F64430C0F60101C2F20000042214F071
:100F400089FA28B946F6C010C0F6010014F05AFA22
:100F500047F2AC55C0F60105F8E647F2AC55C0F6CD
:100F60000105F5E640F25E43C2F2000301221A7069
:100F70000AF01EBF02282DE9F04106D0E028054600
:100F800068D001281AD0BDE8F08140F20A0140F291
:100F90000B0240F26C33C2F20003C2F20001C2F253
:100FA000000242F211200524C4F2334046F2556596
:100FB0000C70147018609D80BDE8F08140F26C36B2
:100FC000C2F2000640F20A0840F20B0740F68834ED
:100FD00041F61E7142F22232C2F2000442F2267C35
:100FE000C2F22011C2F22452C2F20008C2F200077B
:100FF0000A23A6F808C0316072600021272220462B
:1010000088F800303B7014F06FF940F28043C2F270
:101010000003E01C197825704A1CD2B261701A7066
:101020000AF000FB04F1200C20686168A268E36804
:1010300035460FC5103464452E46F5D12068A18889
:10104000A279AA7128602723A98088F800303B7014
:10105000BDE8F08140F6C033C2F200039A7B3AB992
:101060005A78012A1AD0042A8DD101225A708AE7AF
:1010700040F20A01C2F2000140F26C32C2F20002F8
:10108000032405200C70DD7B1C7C107001210020E6
:101090005570947059709873BDE8F081998940F249
:1010A0006C3240F20A03C2F20002C2F2000349BAF3
:1010B00002201180187066E7F0B540F20A05C2F20E
:1010C000000587B02878694604F01CF9002852D042
:1010D000012100238DF812109DF8087029788DF8F1
:1010E00004301E460393ADF810301A461C4640F2F9
:1010F0006433C2F2000346F65850C0F601001C707B
:101100005F705A609E7014F0F7F82B7893B100244A
:1011100040F26C3746F6A8562346C2F20007C0F6E6
:101120000106F95C304614F0E7F801342A78E3B29E
:101130009A42F6D848F22840C0F6010014F062F94D
:1011400001A804F09BFF044646F66850C0F6010073
:1011500014F058F940F27803C2F2000346F69450B6
:1011600053F82410C0F6010014F0C6F8201E18BF72
:10117000012007B0F0BD40F25F43C2F200032978BE
:101180001C7840F21C03C2F2000340F26C321F785C
:101190006CB9C2F2000201238DF804408DF808708A
:1011A0000392ADF810100E468DF812309FE701241F
:1011B000C2F200028DF808700392ADF810100E46CE
:1011C0008DF804408DF8124091E700BF10B590B043
:1011D0004FF48173012201A8ADF808308DF8042086
:1011E00004F024FE044646F6B450C0F6010014F0A4
:1011F00009F940F27803C2F2000346F6945053F81E
:101200002410C0F6010014F077F86CB946F6D850F7
:10121000C0F6010014F0F6F840F23003C2F2000309
:1012200007221A7010B010BD06A800248DF81840CF
:1012300004F0D8F89DF81C303BB940F23003C2F2FC
:10124000000302221A7010B010BD06A88DF81C40D1
:1012500004F076FA40F23003C2F2000302221A7060
:10126000F1E700BF10B540F27C44C2F200048AB03E
:101270002368013323600AF057FF236898421ED881
:1012800040F26440C2F20000002323600AF0ECFA4E
:10129000012468468DF8004004F0A4F868B99DF870
:1012A000043043B340F2300240F21D03C2F20002A8
:1012B000C2F20003042111701C700AB010BD40F28C
:1012C0003003C2F2000340F264400622C2F2000082
:1012D0001A700AF0C9FA40F264404EF66021C2F278
:1012E00000000AF0FDFA40F26440C2F200000AF089
:1012F00019FA0AB010BDFFF769FFDEE710B54378B1
:101300000D2B044612D046F6E850C0F6010014F04A
:1013100079F840F234036278C2F2000346F6945042
:1013200053F82210C0F6010013F0E6FF23780E2BCD
:1013300000D010BDBDE810400020FFF793BF00BFF4
:1013400010B5044646F614608AB0C0F6010014F0E9
:1013500059F840F234036278C2F2000346F6945022
:1013600053F82210C0F6010013F0C6FF237862780C
:10137000012B10D0042B0CD15AB940F6C033C2F265
:1013800000031A782AB101229A73227ADA73627AF8
:101390001A740AB010BDD2BB46F62C60C0F601002C
:1013A00014F030F846F65060C0F6010014F02AF848
:1013B000072368468DF8003004F014F846F65C60A8
:1013C0000199C0F6010013F097FF48F24C40C0F6B7
:1013D000010014F017F82D2368468DF8003004F052
:1013E00001F846F674609DF90410C0F6010013F090
:1013F00083FF47F60C60C0F6010014F003F840F2DA
:101400003003C2F2000304221A700AB010BDFFF7C5
:10141000DDFE0AB010BD00BF31B32DE9F04146F644
:101420008C6847F60C6706460D46C0F60108C0F604
:1014300001070024315D404613F05EFF631C13F08A
:101440000F0FDCB2384604D1A54205D913F0DAFFFC
:10145000F0E7DCB2A542EDD847F60C60BDE8F041FC
:10146000C0F6010013F0CEBF47F60C60C0F60100D5
:1014700013F0C8BFF0B5044646F694608BB0C0F6D2
:10148000010013F0BFFF40F234036278C2F20003A0
:1014900046F6945053F82210C0F6010013F02CFFCA
:1014A0006078002869D16379012B00F0A38040F6B1
:1014B000C036C2F20006337813B1B2890132B2816C
:1014C000627B3AB1E278022A04D0E02A00F09580EB
:1014D000012A5FD06D4646F25876C0F601060FCE5F
:1014E0000FC596E8030085E8030046F6BC70616905
:1014F000C0F6010013F000FF637C0AAA02EB83032D
:1015000046F6EC7053F8281CC0F6010013F0F4FE08
:1015100047F20000E178C0F6010013F0EDFE47F25B
:101520001400217BC0F6010013F0E6FE237B33BBE1
:1015300046F674602179C0F6010013F0DDFE47F233
:101540003800B4F90E10C0F6010013F0D5FE47F2D2
:101550004C0094F91010C0F6010013F0CDFE94F980
:101560000E000AF089FD94F910000AF08BFD47F691
:101570000C60C0F6010013F045FF0BB0F0BD47F260
:101580002800C0F6010013F03DFF217BA068FFF7A3
:1015900043FFCDE7237B002B9CD046F6BC60C0F612
:1015A000010013F0A9FE237B73B146F6CC66C0F6AA
:1015B00001060025A3683046595D13F09DFE0135F4
:1015C000227BABB29A42F5D847F60C60C0F6010018
:1015D00013F018FFA3681A78012A00F00C81022A80
:1015E0007FF478AF98785B7843EA00200AF084FDB6
:1015F0006D4670E7FFF736FE59E7002B3BD1217BA4
:1016000004297FF467AFA168087801287FF462AFEE
:10161000487801287FF45EAF887801287FF45AAFBC
:10162000CD78012D7FF456AF40F20A01C2F20001DD
:1016300040F25F47C2F200078DF8045040F20B0001
:10164000022591F800C00D70C2F2000040F21C01AA
:101650003B70C2F200016D4640F20117F360337433
:1016600080F800C00523378028460A708DF80030C6
:1016700004F066F82FE7A26813787370082B3FF622
:1016800029AFDFE803F06961584F988B2B200500E4
:101690006D46082328468DF8003004F0C7FB064647
:1016A00046F68070C0F6010013F0ACFE40F27803FD
:1016B000C2F2000346F6945053F82610C0F601001B
:1016C00013F01AFE07E7237B032B00F0A380072B00
:1016D00000F0C1806D4601237370FCE640F20B0000
:1016E000C2F2000040F20A03C2F2000340F25F417E
:1016F00000781870C2F2000140F21C020023C2F20E
:1017000000026D460B70B381012133708DF80430F7
:101710002846052311708DF8003004F011F8FFF70A
:1017200055FDD8E640F25F43C2F2000300210122DA
:1017300019707270CEE640F25F43C2F200030122DC
:101740001A7072706D46C6E640F20A03C2F20003D8
:1017500002221A706D46BEE640F20B00C2F2000093
:1017600040F20A03C2F2000340F25F4100781870B1
:10177000C2F2000140F21C020023C2F200026D46D8
:101780000B70B381337001218DF804302846052396
:1017900011708DF8003003F0D3FF9CE66D460423F2
:1017A00028468DF8003004F041FB064646F6D4602A
:1017B000C0F6010078E7237B40F20A00C2F2000085
:1017C00040F26C31F22BC2F2000103701D464FF063
:1017D000040028BFF225012B087088BF012301D81F
:1017E00078E6A268D25C0133D8B20132A84201F88F
:1017F000012FF6D36EE65B78552B7FF46BAE40F28B
:10180000F853C2F20003AA2202201A606D460AF0C1
:10181000E9FA60E605238DF80030517893786D463B
:1018200043EA01232846ADF8043004F0FFFA0746E6
:1018300046F61070C0F6010013F0E4FD40F27803A4
:10184000C2F2000346F6945053F82710C0F6010088
:1018500013F052FD3FE705238DF80030517893785F
:1018600043EA0123ADF804301379D07851791B0293
:1018700043EA00430B43642101FB03F302936D46EB
:1018800093798DF80C30284604F0D0FA074646F6D6
:101890004870C0F60100CFE730B5044647F26C004F
:1018A00095B0C0F6010013F0ADFD40F2340362784C
:1018B000C2F2000346F6945053F82210C0F601001D
:1018C00013F01AFD00230AA88DF8283003F08AFDD2
:1018D00047F29800E168C0F6010013F00DFD47F6ED
:1018E0000C60C0F6010013F08DFD47F27813C0F6CE
:1018F00001039DF82C2047F2C800995CC0F6010056
:1019000013F0FAFC40F2643547F60C60C2F20005B1
:10191000C0F6010013F076FD47F2DC006978C0F6EE
:10192000010013F0E9FC47F2F000A978C0F60100CD
:1019300013F0E2FCAB785BBB47F60C60C0F601002D
:1019400013F060FD46F67460A178C0F6010013F054
:10195000D3FC1E2368468DF8003003F043FD0028B9
:101960004CD047F24C1094F90310C0F6010013F06C
:10197000C3FC232368468DF8003003F033FD40B3E9
:1019800047F60C60C0F6010013F03CFD15B030BD09
:1019900047F20410C0F6010013F0AEFC2B78012BC7
:1019A00039D1217947F2600247F26403C0F601029F
:1019B000C0F6010347F21410002914BF114619465E
:1019C000C0F6010013F098FCA9786868FFF724FDC1
:1019D000B2E747F26010C0F6010013F08DFC019BE6
:1019E00047F270101988C0F6010013F085FC47F625
:1019F0000C60C0F6010013F005FDC1E72369019AF0
:101A000003EB430347F2381052F82310C0F60100ED
:101A100013F072FCA5E747F22810C0F6010013F09E
:101A2000F1FCD1E747F27C1038B5C0F6010040F672
:101A3000503413F0E7FCC2F2000400F00DFA00F09D
:101A400009FA41F6990241F27540C0F60002C0F66B
:101A5000000040F6B03541F24133C2F20005226089
:101A60006060C0F6000341F2FD2140F6657247F266
:101A7000A810C0F60001C0F60002A360C0F6010085
:101A80000023E160C5E90033EA60AB6013F0BAFC03
:101A900020462946072203F035FA044660B140F299
:101AA0007803C2F2000347F2D41053F82410C0F6B2
:101AB000010013F021FCFEE740F23003C2F2000304
:101AC00047F20420C0F601001C7013F09BFC40F2AA
:101AD0007C43C2F2000347F22420C0F601001C60E0
:101AE00013F090FC012038BD2DE9F04146F27073EF
:101AF000C0F6010393E8030086B047F2AC52C0F68B
:101B0000010202AE86E80300D3E90201126E04AFBF
:101B100087E8030002B1904740F23004C2F20004AB
:101B200002F0E4FB2378072B00F28781DFE813F053
:101B30001A006A007500B300240136015E01080036
:101B400001A800F07DF940F25E43C2F2000301A853
:101B50001A78012A04BF00221A7000F077F906B043
:101B6000BDE8F08147F26820C0F6010040F660351C
:101B700013F048FCC2F2000540F20C030822C2F246
:101B8000000328462A706B6003F0DAFD40F2200360
:101B90000922C2F2000328462A706B6003F0D0FDD0
:101BA0009DF809209DF808309DF80A1013439DF810
:101BB0000B200B439DF80C1013439DF80D200B4395
:101BC0009DF80E1013439DF80F200B43134300F0B4
:101BD000308140F660304FF00208C2F200006E60C3
:101BE00085F8008003F0ACFD40F660300323C2F2BC
:101BF00000006F602B7003F0A3FD84F8008006B036
:101C0000BDE8F08147F23C20C0F6010013F0FAFB7A
:101C1000FFF708FF06B0BDE8F08140F27C43C2F256
:101C2000000347F284200027C0F601001F6040F641
:101C3000603513F0E7FB41F2652140F26440C2F2E7
:101C40000005C0F60001C2F2000009F063FD0126A4
:101C50001D2328462B702E7103F072FD05232846A4
:101C60002B702F7103F06CFD3022142328462A704C
:101C70006B6003F065FD03F03DFB28462E7003F01A
:101C8000B1FB00287FF46BAF2B79002B40F0BE80B6
:101C90000323237063E747F2A42040F66035C2F2C5
:101CA0000005C0F6010013F0ADFB022328462B709F
:101CB00003F098FB6B6847F2C0201978C0F601006A
:101CC00013F01AFB47F2D426C0F6010601246B6814
:101CD0003046195D013413F00FFB082CF7D147F69D
:101CE0000C60C0F6010013F08DFB40F6603003235A
:101CF000C2F200002B7003F075FB6B6847F2DC202A
:101D00001978C0F6010013F0F7FA47F2D426C0F6AE
:101D1000010601246B683046195D013413F0ECFABA
:101D2000082CF7D140F22005C2F2000547F60C60FE
:101D30002C46C0F6010013F065FB47F2F02014F8C2
:101D4000011BC0F6010013F0D7FA47F20436103534
:101D5000C0F6010614F8011B304613F0CDFAA54277
:101D6000F8D148F24C40C0F6010013F04BFBFFF7EE
:101D70002DFA06B0BDE8F08140F21D0547F20C30A7
:101D8000C2F20005C0F6010013F03CFB2B78002BDB
:101D900044D10523237006B0BDE8F08147F220301E
:101DA000C0F6010013F02EFB40F6C033C2F2000370
:101DB0004EF66022187841F2883140F260430028E4
:101DC00008BF1146C2F2000340F264400722C2F28B
:101DD00000001960227009F083FD40F26440C2F2F5
:101DE000000009F09FFC06B0BDE8F08140F27C43A2
:101DF000C2F2000347F238301968C0F6010013F050
:101E00007BFA0723237006B0BDE8F08140F21D0382
:101E1000C2F2000304221E702270A0E640F21C03EE
:101E2000C2F200031878FFF7A5F8FFF745F928700C
:101E3000AFE7304600F028F8CBE6022323708EE6A9
:101E4000EFF31083036072B6704700BF036883F33B
:101E500010887047704700BF38B540F6EC34C2F2C6
:101E60000004204600F0C8F90625072005210422B9
:101E7000012384F8545084F8400084F8681084F8F2
:101E80007C2084F83C3038BD47F2905247F294539E
:101E9000C1F6FF73C1F6FF7210B411681C682144CB
:101EA000090EC1711C6811682144090C81711C68FC
:101EB00011682144090A4171196812685DF8044BE0
:101EC0000A440271DA78C2705A8882701A68120A5B
:101ED00042701B6803707047F0B58BB06F299DF896
:101EE00040703CDC05460170481C38D001F00F0002
:101EF000012686401FFA86FC11F0F004A5F802C006
:101F00004FF0B0412DD0102C40D0202C4DD0CC6CB7
:101F10004FF4E050C4F6000044F080046860CC64E4
:101F2000C96C01F080010491049905960221CDE964
:101F30000771AF7242B3032A26D0022A44D0012B84
:101F40000CBF11230123012A069305D1119B614681
:101F5000DAB20DF0B7F8686805A90CF043FF0BB0D2
:101F6000F0BDCC6C4FF0904044F001046860CC644C
:101F7000C96C059601F0010101910199AF7202212E
:101F8000CDE90771002AD6D10692E5E7CC6C4FF473
:101F90008060C4F6000044F002046860CC64C96C40
:101FA00001F0020102910299BFE7CC6C4FF400608E
:101FB000C4F6000044F004046860CC64C96C01F00D
:101FC000040103910399B0E7012B119A09920CBF08
:101FD000122302230693BFE730B5054690F90000AF
:101FE0006F2887B04ADC002B48D0144601296A8844
:101FF0002B6101927BD002290CBF4FF404134FF4E4
:1020000044130293AB7A039301A9022368680493F3
:102010000CF0E8FE032C9BBF47F25433C0F60103DB
:10202000002153F824106B88202B2FD8012B2BD99B
:10203000023B1E2B28D8DFE803F02527232727277C
:1020400058272727272727275627272727272727C0
:10205000272727272727272710001724287840F22B
:10206000844300F00F00C2F20003002243F8205026
:1020700020460CF095FB20460CF0E2FB07B030BD8B
:102080000824EBE70724E9E70624E7E7B3F5806FC8
:1020900027D00CD9B3F5005F23D012D9B3F5804F08
:1020A0001FD0B3F5004F14BF06242824D6E7B3F59C
:1020B000807FD2D00ED9B3F5007F14BF0624172439
:1020C000CCE7B3F5006F0CD0B3F5805F14BF0624E6
:1020D0002824C3E7402BC0D0802B14BF062417242C
:1020E000BCE72824BAE70A24B8E70924B6E74FF486
:1020F0008813029386E700BF01200DF001B800BFEE
:1021000002200CF0FDBF00BF04200CF0F9BF00BF9F
:1021100008200CF0F5BF00BF08B520200CF0F0FF40
:1021200040200CF0EDFF80200CF0EAFF4FF48070AF
:102130000CF0E6FFBDE808404FF400700CF0E0BF83
:1021400008B54FF480600CF0DBFF4FF400600CF03A
:10215000D7FF4FF480500CF0D3FF4FF400500CF039
:10216000CFFF4FF480400CF0CBFFBDE808404FF4A8
:1021700000400CF0C5BF00BF01284FF000030AD893
:1021800040F28442C2F2000252F8233073B11A695D
:1021900062B1D8681047400801330128DBB2EFD0A4
:1021A000400801330128DBB2F5D1E9E7704700BFF1
:1021B00030B583B00C46054601A8FFF741FE6CB16F
:1021C000012C06D140F2C442C2F2000213682B4334
:1021D000136001A8FFF73AFE03B030BD40F2C442DD
:1021E000C2F2000201A8136823EA05031360FFF797
:1021F0002DFE03B030BD00BF70B582B000240126B3
:1022000005463246234621460196009409F048FAD5
:10221000324605F17C002346CDE90046042109F051
:102220003FFA05F1280023462246CDE90044142157
:1022300009F036FACDE9004405F1140023462246A0
:10224000102109F02DFA02B070BD00BF002905DD94
:102250001629A8BF1621022207F048BB6FF0080319
:102260009942B8BF1946022207F040BB05207047CB
:10227000283009F01FBA00BF30B58BB00446019179
:1022800007F05AFC0121019B84F8901004F128000A
:10229000032209F00DFA002505AB04AA204603A984
:1022A000059507F04BFC204606A907F079FC0DF1D7
:1022B00012012046ADF8125007F08EFC204607F0C0
:1022C000A3FCA3222046022107F02EFD20463F2139
:1022D00007F0A8FC03232046C0F2023308A90893A4
:1022E000ADF8265007F0C2FC46F28073C0F6010339
:1022F00020461B68079307A907F02CFB2046022104
:1023000007F070FA0BB030BD08B547F26430C0F684
:10231000010013F077F8002201214FF090400CF0FB
:10232000D1FE01200AF042F90122BDE80840114621
:102330004FF090400CF0C6BE10B590F890300446B7
:102340006BB1072B0BD04FF48064C4F6000401215D
:1023500020460CF0A3FE0128F9D0002010BD002279
:1023600010214FF090400CF0ADFE012210214FF0F3
:1023700090400CF0A7FE012384F89030E3E700BF03
:102380002DE9F84F8846BDF828A016461C46814620
:10239000FFF7D2FF18B103273846BDE8F88F07468C
:1023A000024610214FF090400CF08CFE6EB1013EC1
:1023B00018FA86F609F13C0B08F1FF3515F8011FF4
:1023C000584600F0FBFAB542F8D1BAF1000F0DD033
:1023D0000AF1FF3514FA85F509F13C09013C14F8BE
:1023E000011F484600F0EAFAAC42F8D10122102160
:1023F0004FF090400CF066FEB8F8002041F6013333
:102400009A42C9D04FF48064C4F6000401212046EA
:102410000CF044FE0128F9D03846BDE8F88F00BF23
:102420002DE9F8430D46BDF8209090461C4606461F
:10243000FFF782FF18B103273846BDE8F883074647
:10244000024610214FF090400CF03CFEB8F1000F16
:1024500049D008F1FF3815FA88F83C36013D15F8E7
:10246000011F304600F0AAFA4545F8D1012210219B
:102470004FF090400CF026FE4FF48065C4F6000546
:10248000012128460CF00AFE0128F9D010214FF056
:10249000904000220CF016FE0021304600F08EFA2B
:1024A000B9F1000F0CD009F1FF3514FA85F5013CA4
:1024B0000021304600F082FA04F8010FAC42F7D157
:1024C000012210214FF090400CF0FCFD4FF480648D
:1024D000C4F60004012120460CF0E0FD0128F9D0EB
:1024E0003846BDE8F8833C36C0E700BF2DE9F84325
:1024F000884615461E460746FFF71EFF20B14FF0DF
:1025000003094846BDE8F8838146024610214FF092
:1025100090400CF0D7FD7EB1013E18FA86F63C37AC
:10252000013D08F1FF3414F8011F384600F046FA67
:10253000B44205F8010FF6D1012210214FF090406E
:102540000CF0C0FDB8F8002041F601339A42D8D013
:102550004FF48064C4F60004012120460CF09EFD77
:102560000128F9D04846BDE8F88300BF90F89000F4
:10257000704700BF80F89010704700BF2DE9F04110
:102580004FF4205540F2F04480460F46C4F2000557
:10259000C2F20004002241462046AE6A0EF010F856
:1025A0000022394620460DF0CBFFAB6AB342F1D191
:1025B00098F8010098F8031098F802207C78013808
:1025C000C0EB001340F2B55600EB830306FB01F6A7
:1025D0004AF6A02C11F0030FC0F2990C03F101038D
:1025E00002F1FF3206F1030645F250514FEA400571
:1025F000C0F2440103EBD37018BF614602EB9603AF
:10260000C4EB04143E78E940A200BD787C684FF426
:10261000616C03EB600301F003010CFB06224FF435
:10262000A3405B1A2A44C0F2010000FB0323C4F557
:102630007F7403349802990D001941F10001BDE83F
:10264000F08100BF70B540F21456C2F2000686B0A9
:1026500034780CB106B070BD4FF0B04140F2F04597
:10266000D1F89030C2F2000543F400434FF42052F9
:10267000C1F89030C4F200021F2140F2FF33284617
:10268000C5E90213C5E906446C602C612A600EF0AE
:10269000EFFA40F20113C0F20103224669462846D0
:1026A00000930EF017FD224601A92846CDE901440A
:1026B000CDE904440EF0AEFB28460EF007FF22469B
:1026C000012129200CF06CF840F2185429200CF05C
:1026D000B7F8C2F2000428464FF480710EF0F2F908
:1026E000211D04F11800FFF749FF0123206033701A
:1026F00006B070BD10B540F21854C2F20004211D9E
:1027000004F11800FFF73AFF206010BD40F21853A3
:10271000C2F20003186870470320704708B50146ED
:102720007D220023C001490EFDF7E6FF08BD00BF72
:102730004FF47A73C0F30902800A03FB02F203FB31
:1027400000F000EB9220704710B540F2F044C2F266
:1027500000044FF4807120460EF0B4F92168CB6874
:102760004FF40062DBB2C5F6000263F4C0734FF4AD
:102770000030CB60D06010BD2DE9F04F40F218530F
:10278000C2F2000383B09A689E7E0192834693F85A
:1027900004A05C7993F80690DD795F7E93F81B8046
:1027A000FFF7D2FF019A45F27F1CC2F57F7E0EF142
:1027B000030ECBF30900C0F2010C10FA8EF0BCEB53
:1027C0009B2FB6B21FFA80FE4FEA9B2207D2A2F5DA
:1027D000A832A2F5C072711C62458EB2F7D8B2F56C
:1027E000616F1FFA8AF30BD3A2F561620133B2F570
:1027F000616F9BB2F8D23B2AA4B204D901343C3AAF
:102800003B2AA4B2FAD84A44BEF5806F92B263D391
:10281000AEF58061C1F3852101310A4492B2CEF355
:10282000090003E03C3A013492B2A4B23B2AF9D841
:102830003B2C0BD93C3CA4B201333B2C9BB2F9D8C6
:10284000172B05D9183B711C9BB28EB2172BF9D8E8
:1028500018F0030F31D147F28431C0F601010F4463
:1028600017F8011CB14204D2B6FBF1F701FB176166
:102870008EB240F2C841C2F20001C0F57F70033051
:102880000027486040F2F0408A704FF0206C4C7096
:10289000C2F200004FF480743A46C1E903770B702E
:1028A00081F82060CD70C1F818C04C62CF614F61D3
:1028B00003B0BDE8F04F0DF0BDBE47F27831C0F671
:1028C00001010F4417F8011CB142D2D2B6FBF1F757
:1028D00001FB17618EB2CCE77046A7E710B586B052
:1028E000044601A96846FFF749FE40F21852C2F2B9
:1028F0000002136823441B1A032B8CBF0021012103
:102900000420FFF755FC2046FFF736FF06B010BD48
:1029100000B587B001A96846FFF730FE07B05DF843
:1029200004FB00BF00B587B001A96846FFF726FE8B
:1029300040F21853C2F200031B68C01A07B05DF8DA
:1029400004FB00BF10B586B0044601A96846FFF736
:1029500015FE4FF47A720346C0F3090002FB00F241
:102960009B0A920A43EA8150228006B010BD00BF44
:1029700008F038BF38B540F2F044C2F20004024615
:102980000D46204600210EF071FD2A462046012109
:10299000BDE838400EF06ABD70B540F2F044C2F2B6
:1029A000000406460D46204600210EF077FD012169
:1029B000306020460EF072FD286070BD00B587B013
:1029C00005A80023ADF80E108DF81330FFF738FA84
:1029D0004FF0FF3341F2181000930DF11302012361
:1029E0000DF10E01C2F200000EF0D4FF05A8FFF7B2
:1029F0002DFA9DF8130007B05DF804FB40F2D803F0
:102A0000C2F200031860704730B440F2D804C2F23A
:102A1000000444F66D632568C4F2C61343F239021C
:102A200003FB05220323A3FB0253D51A03EB550333
:102A30009B0F091AC3EBC3730131D31A93FBF1F552
:102A400001FB15332260184430BC7047531E9BB203
:102A500042B10133CA18013811F8013B00F8013FB7
:102A60009142F9D1704700BF72B110B4541EA4B2A4
:102A700001340C44024411F8013B02F8013DA1422B
:102A8000F9D15DF8044B7047704700BF531E9BB2ED
:102A90002AB10133034400F8011B9842FBD170476F
:102AA000E8B1E9B130B44D1E48F2203110FA85F595
:102AB000441ECEF6B8514FF0FF3014F8012F082312
:102AC000504040F30002013B0A409BB282EA5000B2
:102AD000002BF6D1A542F0D1C04330BC70477047FF
:102AE0000846704740F23453C2F2000340F2E0114E
:102AF000C2F203011A78D1F8481342F008021A70A2
:102B000011B1CB6803B11847704700BF40F234538E
:102B1000C2F2000340F2E011C2F203011A78D1F8C8
:102B2000481342F004021A7011B1CB6803B1184780
:102B3000704700BF40F23453C2F2000340F2E0118C
:102B4000C2F203011A78D1F8481342F002021A7057
:102B500011B1CB6803B11847704700BF10B540F200
:102B6000E014C2F2030404F5806008F07DFE94F8DE
:102B70001A3413B1012384F81934D4F8483323B13B
:102B8000DB6813B1BDE81040184710BD10B540F226
:102B9000E014C2F20304D4F8403394F81A2443F04A
:102BA0008003C4F840337AB994F8242794F88D341C
:102BB000022A23F0120343F0120318BF062284F8FE
:102BC0008D3484F88C2410BD0020FFF7C7FFEBE79D
:102BD00010B540F2E014C2F2030482B0D4F84037DA
:102BE00023B1D4F8D0350133C4F8D03594F83A374E
:102BF000FBB994F88D34990703D594F83134012B3F
:102C000009D994F8263733B1D4F8BC355A1C18BF0B
:102C10000133C4F8BC35D4F84033002223F002035A
:102C20000120C4F84033A4F8182484F81A2402B010
:102C300010BD01A90B2003F057FC0028D9D1B4F82E
:102C4000D635B4F8FC2301339BB29A42A4F8D635AA
:102C5000CFD194F88D3484F83C0743F008030E225A
:102C600084F88D3484F86C24C3E700BFF8B540F2D3
:102C7000E014C2F20304064694F82437022B0F46F0
:102C800005D047F2AC53C0F60103DB6A984703F066
:102C900055FB0546A0BB94F82437012B3AD094F895
:102CA0008C34BBB994F81A340BB184F845643046BF
:102CB00003F084FDD4F8C00508F02CFED4F8BC3332
:102CC000984230D294F82437022B18BF062384F898
:102CD0008C34F8BD94F81A340BB184F84574384636
:102CE00003F06CFD94F8243794F88D24022B42F005
:102CF000100218BF062384F88D2484F88C34F8BDA4
:102D0000022003F00BFB002003F010FB94F82437A3
:102D1000012BD9D103F014FBA0B903F013FBD8B9F0
:102D2000002DBCD0CEE740F28050C2F2030008F084
:102D30009BFD94F88D2494F8243742F0100284F817
:102D40008D24C1E7002003F0EBFA002003F0F0FA35
:102D500003F0F8FA0028B5D0002003F0E3FA0020D1
:102D600003F0E8FA94F82437AEE700BF2DE9F04706
:102D700040F23456C2F200061F468246894690460B
:102D800008F0C0FD40F2E0133578C2F2030340F6CC
:102D9000D834C2F2000425F01105D3F84833C4F842
:102DA00004A045F011052060A4F80890A4F80A805A
:102DB0002773357023B1DB6813B1BDE8F0471847BE
:102DC000BDE8F08770B582B008F09CFD40F6D433C2
:102DD000C2F200036D46024628461A6008F008FE5B
:102DE00040F23452C2F2000240F2E013C2F2030396
:102DF00095E803001478D3F8486344F0200403F501
:102E00004E7383E8030014702EB1F3681BB102B057
:102E1000BDE87040184702B070BD00BF2DE9F04119
:102E200040F2E014C2F2030404F5C062D4F8401684
:102E3000D4F83C06B4F85836A4F8CC3582E8030040
:102E400004F28453D4F84816D4F8440694F839565A
:102E5000D3F8D070D3F8CCC0B4F84CE684F8FD5564
:102E600090B004F5C162002582E803004FF001082C
:102E700004F51E6204F6FC0604F51061C3F89470B4
:102E8000CDE90361C3F890C00592A4F810E603A948
:102E900084F83C57C4F8BC55C4F8005584F827574B
:102EA000A4F8185484F81A5484F8CE5584F8295795
:102EB00084F82A57A4F82C878DF8188094F8DC053C
:102EC00004F03EFDD4F8003684F8D453C4F8D83367
:102ED00004F575770FCF04F57A760FC694F81126AE
:102EE00094F83C3784F8E42384F8E73384F8E55316
:102EF00084F8E683D4F84833396831600222CDE99A
:102F0000015584F81B5484F8F98384F8FA231BB123
:102F10005A68DB68CDE9012340F24C62C2F2030239
:102F2000A2F14C05A2F1140402F1210302F5FA7199
:102F300002F5B87007920895099402F5BA7502F582
:102F4000FC740A930B9102F534730C9002F25C52FC
:102F500001A907A8CDE90D540F9303F0DDF910B0D6
:102F6000BDE8F08130B540F2E014C2F2030483B052
:102F700004F57A75D4F8E03594F8E42594F90C1644
:102F800094F8DC05009504F0F9FC0223294684F846
:102F9000FA3394F83C5794F8DC0584F8FB5301238A
:102FA00004F2244284F8F93304F0F8FC50B147F2FB
:102FB000AC53C0F6010300205B6B984794F8FA33DA
:102FC00084F88C3403B030BDF8B540F2E014C2F29E
:102FD0000304064694F82457012D04D0022D42D054
:102FE00045B10320F8BD03F0B7F90028FAD184F801
:102FF0002467F8BD002846D00128F4D00228F0D17B
:1030000004F5757CBCE80F0004F57A770FC7DCF88F
:1030100000303B6084F8246707F5C67384F8FA63D0
:1030200093F8E1201AB193F8F820022A35D001353F
:10303000042D03F13003F3D147F2AC53C0F6010382
:103040000022DB6A84F81A249847FFF78BFF94F874
:103050003A37B3B140F604110122C2F20301202035
:1030600003F0A2F90DE00028BBD147F2AC53C0F643
:10307000010384F82407DB6A984794F83A37002B59
:10308000E8D10020F8BDD4F80006D4F8041604F501
:10309000C16484E803000320F8BD05EB450504EB9B
:1030A000051394F81106D3F8802693F8846694F8F3
:1030B0001B54C4F8082603210123C4F8EC2384F828
:1030C0000C6684F8E85384F8F80384F8FA1384F85B
:1030D000F933B1E770B547F2AC56C0F6010640F2DD
:1030E000E014C2F203040D4608F0BEFB336B9847B0
:1030F00094F8DC05294604F2244204F04FFC30B178
:10310000736BD4F8E8059847AB7C84F88C3470BDB9
:1031100030B440F2E013C2F2030303F5707193F888
:10312000FD2593F81B0493F8115693F83C4783F858
:10313000C323002283F8C00383F8D05383F8D3431A
:1031400083F8D22330BC03F5627083F8D123FFF7F4
:10315000C1BF00BF40F2E013C2F2030393F88C2416
:1031600002B9704730B493F81B4493F8110683F802
:10317000D44393F83C27D3F8001683F8E4030124E2
:10318000002583F8E64383F8E723C3F8D81383F8D0
:10319000E55303F5757130BC03F56870FFF79ABF0E
:1031A0002DE9F04F40F2E01487B0C2F2030400258D
:1031B000CDE90155BDF840A02580074688469146D7
:1031C00084F81A541E46002B52D05FFA8AFB40F254
:1031D000183052463146C2F20300FFF737FC84F83C
:1031E00037B23B78A3703D786D09042D07D0072DC9
:1031F00041D0022D06D0022007B0BDE8F08F012398
:1032000084F81A34042340F2E21584F80431C2F23F
:103210000305FF2384F80C31C4F808513A78D4F838
:10322000603684F80D2184F82891C4F8103198F89C
:10323000003084F8143101A805F59B73C4F82C31D3
:1032400084F830B103F088FD034638BB019AA4F836
:10325000483402A8A4F81621C4F8502403F0CCF98D
:1032600000284ED1029BEBB9002007B0BDE8F08FDB
:103270009B469A46ABE7002EF6D0BBF1000FF3D089
:1032800040F2E3105FFA8AF23146C2F20300FFF720
:10329000DDFB94F8373201332380E5E7122007B0D5
:1032A000BDE8F08F94F9CD3594F810268DF81130E3
:1032B00094F8DC058DF812200D2304A98DF8103048
:1032C00004F02EFB94F837325BB1029B0F2B1CD914
:1032D00005F2025202A9C0B203F09CF988B90A2093
:1032E0008AE705F2025502A9C0B22A4603F092F914
:1032F00038B9029B84F82801C4F82C5184F8303185
:103300007AE7132007B0BDE8F08F05F58B7202A9AC
:103310000F2003F07FF90028F3D198F80030029ACB
:1033200062F3030388F8003084F8143164E700BFC7
:10333000F0B540F2E014C2F2030404F2845387B003
:10334000D3F8905094F8CD6594F8CC252188D3F823
:103350009470039504F21C4305468DF808008DF81F
:1033600009608DF80A20ADF814100DF1030202A9CE
:1033700094F8DC05049700268DF8036004F018FB30
:10338000D4F81C3494F8CD159DF80320C4F8545497
:10339000012084F8450484F8461484F84724C4F8CE
:1033A0004C34C4F85C3402F0CFFFA0B994F8243751
:1033B000012B6DD002F0CCFF94F8043194F9CD5577
:1033C00094F81B6400200190042B5ED8DFE803F022
:1033D000404B545D0B00D4F81C0402F0CDFF0028D4
:1033E000E4D0102032E001A803F0B6FC002852D14E
:1033F00094F8183401980BB10138019040F2E82399
:103400003246E9B2C2F2030303F0C4FD40BB94F8B4
:103410001834D4F8405394F80C11218047F2AC5280
:10342000C0F601020133DBB245F0020640F2E210C1
:103430000025C2F2030084F8183484F84934C4F833
:103440004063936AC4F800559847284607B0F0BD1A
:1034500040F2E820C2F2030003F0EAFC0028D6D0D4
:10346000112007B0F0BD40F2E820C2F2030003F0E3
:1034700033FD0028CBD0F3E740F2E820C2F203008E
:1034800003F05AFD0028C2D0EAE7032007B0F0BDE0
:1034900002F074FF8EE71220D8E700BFF0B591B0BC
:1034A000064602F04BFF002840F08D8040F2E01409
:1034B000C2F2030494F82437012B00F08D80D4F875
:1034C000C43543B9B4F82C27D4F81C34013A03FBB3
:1034D00002F3C4F8C43594F80431002B69D0042BEE
:1034E00003D00325284611B0F0BD40F2E820C2F217
:1034F000030004F09DF9002863D194F80C31D4F84E
:10350000C41594F8CD25238008AF94F828370A9184
:1035100038468DF830208DF8323008F08FFAD4F824
:103520003437009302AD97E806002846D4F83037C8
:1035300008F01EFA95E80300D4F8C0350B9394F810
:103540003C272588ADF83E500DAB83E803000027EB
:1035500001238DF83C708DF83130002A37D040F2CD
:10356000A477C2F203076FF4D47294F8DC050097D5
:10357000A7F1C803BA180AA904F062FA0546A8B36D
:103580000B28AFD1002EADD0D4F8FC54002DA9D01B
:10359000D4F84033294643F02003A7F51570C4F84A
:1035A000403308F09DF9A7F5157008F0BBF8002529
:1035B00098E740F2E820C2F2030004F08BF80028FC
:1035C0009BD011258EE70E25284611B0F0BD8DF851
:1035D0003C308DF83120C2E702F0B2FE20B902F093
:1035E000B1FE00283FF46BAF0F257BE794F8DC6554
:1035F00094F9FD3594F9CD2594F81116304604F070
:103600002FFAA7F5017341B294F8E42500933046F0
:10361000D4F8E035A7F5F87704F0B0F9D4F8E03540
:1036200094F8E42594F9041694F8DC05009704F066
:10363000A5F9D4F8CC03D4F8EC25D4F8E013D4F8E9
:10364000F03594F83C6702440B44C4E9EE23F6B12C
:1036500004A8049502F0D0FF38BB94F9CD3594F856
:1036600010268DF8193094F8DC0594F837529DF83F
:1036700010608DF81A200D2306A98DF8183004F07B
:103680004FF93544C0B2A84209D208252AE7D4F838
:10369000F425D4F8F83502440B44C4E9EE2394F839
:1036A0001B04FFF745FE05461CE713251AE700BF7C
:1036B00010B540F2E014C2F2030404F55C7008F0A7
:1036C000D3F8D4F84033D4F8000523F02003C4F82D
:1036D0004033B8B90120FFF7E1FE08B10B2800D153
:1036E00010BD94F8CD2594F8183484F846240920A8
:1036F00084F8450484F8493403F060F8BDE81040CC
:10370000FFF766BA08F006F9B0F5FA5FE2D90023D0
:1037100084F8CE3510BD00BF2DE9F04740F2E0142B
:10372000C2F203048AB094F83CA7D4F8BCE5B4F81C
:10373000CCC5B4F8CC85CDF810E0BAF1000F71D04B
:10374000994694F8273705460E4617469CFA9CFC86
:103750000BB9C4F8C43594F8243794F8262794F8A4
:10376000CE05A3F10103B3FA83F3D1015B0963F33F
:1037700004118DF80C1000283CD1D4F8FC03ADF8EE
:1037800020C040F2DC734FF0010CC2F203038DF84D
:1037900015208DF814C004AA94F8FCC5079094F87D
:1037A00010060092A3F12F01A3F130028DF822C080
:1037B0008DF8230094F8DCC58DF824C005A8CDF859
:1037C00018E002F02FFD9DF80CC0CDF800900146E6
:1037D00061F3861C3B463246284603A98DF80CC08F
:1037E000FFF7DEFC60B10A280AD0A4F8CC850AB045
:1037F000BDE8F087CBB243F020038DF80C30BCE776
:103800000020FFF74BFE0028EFD1049B84F8CE0583
:10381000C4F8BC3502F07CFE002818BF13200AB0A3
:10382000BDE8F08707200AB0BDE8F087F8B50228A8
:103830004FF0000504462F465DD033D800285AD0FB
:1038400040F2E014C2F203040623A11CFF2263F33A
:103850004717012384F8543784F8043184F80E3173
:10386000C4F8081184F80C2184F80D7105F0BAFC35
:103870000822014604F20F10FFF7E8F805F09CFC5F
:103880000822014604F21710FFF7E0F804F59071E2
:10389000092003F097FA00285DD1BDE8F840012027
:1038A000FFF7FCBDFF28F8D140F2E016C2F2030694
:1038B0002846FFF789FB65F34717B31CC6F80831A4
:1038C00086F80D7186F8045186F80C4105F08AFCE3
:1038D0000822014606F58770FFF7B8F805F06CFC82
:1038E0000822014606F58B70FFF7B0F82846BDE8C0
:1038F000F840FFF7D3BD40F2E015C2F20305022104
:10390000D5F85C3685F804110622012062F34717CA
:103910006A1885F85407190AFF20C5F808211A0CFF
:1039200085F80F3185F8101185F8112185F80E41C1
:1039300085F80C0185F80D7105F03EFC0822014662
:1039400005F58970FFF782F805F58D71082003F001
:1039500039FA0028A1D01120F8BD00BF10B540F2FF
:10396000E014C2F2030494F8D43594F844279A4240
:1039700011D00133DBB294F8452784F8D435012AFD
:1039800004D9BDE810400220FFF750BFBDE8104049
:103990000020FFF74BBF04F59B6007F065FF012394
:1039A000E9E700BF10B540F2E014C2F2030404F5E9
:1039B000986007F059FFD4F8502748F63713C0F243
:1039C00041039A4205D94FF47A7303FB02F2C4F81B
:1039D000F8240220FFF72AFF40F2A060D4F8F81480
:1039E000C2F2030007F07CFF40F2A060BDE8104087
:1039F000C2F2030007F096BE10B540F2E014C2F226
:103A0000030404F5956007F02FFFD4F84C2748F61F
:103A10003713C0F241039A4205D94FF47A7303FB7E
:103A200002F2C4F8F4240120FFF700FF40F288609E
:103A3000D4F8F414C2F2030007F052FF40F2886099
:103A4000BDE81040C2F2030007F06CBE10B540F2B2
:103A5000E014C2F2030404F5926007F005FFD4F805
:103A6000482748F63713C0F241039A4205D94FF46C
:103A70007A7303FB02F2C4F8F0240020FFF7D6FEAD
:103A800040F27060D4F8F014C2F2030007F028FF8F
:103A900040F27060BDE81040C2F2030007F042BE81
:103AA0002DE9F04F93B04FF0000B012B02928DF8EF
:103AB00019B0ADF81CB059D88846002956D04FF43B
:103AC00076594CF6CD4AC1F2D52906465C46CCF66D
:103AD000CC4ACDF80C90305D02F0D4FD2044404536
:103AE00044DC335D651C013BEDB21F2B3ED8DFE8A3
:103AF00013F0A1028802B502700236022000FB0119
:103B0000DD018A015A0146012B011A01D700AF00DD
:103B1000990076006B004E003D003D003D003D00E9
:103B20003D003D003D003D003D003D003D003D00AD
:103B3000400040F2E017C2F20307D7F84833002BE9
:103B400000F029831B68002B00F025839847029B17
:103B50008DF81C0003F03F03022207A906202C4623
:103B60008DF81D3002F020FCA045B4D813B0BDE89C
:103B7000F08F023409A92020E4B202F0B5FC00283D
:103B8000F2D1099802F07AFCA045A4D8EEE7E31C34
:103B9000A21CDBB2D2B2F35CB25C705D1B0443EAE0
:103BA00002230343642000FB03F002F0E3FB043430
:103BB0000346E4B2012207A913208DF81C3002F05D
:103BC000F3FBA04587D8D1E70C2002F019FE0028AE
:103BD00040F07E822C46A0453FF67DAFC6E7E31C51
:103BE000A21CD2B2DBB2B05CF35C715D221DD2B21A
:103BF0001B0443EA0023B05C0B43642101FB03F187
:103C000000F00F0002F0B0FB05340346E4B20122DD
:103C100007A911208DF81C3002F0C6FBA0453FF625
:103C20005AAFA3E70B2002F0EBFD0028D2D040F200
:103C3000E017C2F203070B21002002F073FD97F892
:103C40008C34043B012BC5D902F08CFB2C468BE74E
:103C5000735D1A09012540F2E01703F00F030A32E1
:103C600048F63711C2F2030705FA02F00433C0F236
:103C70004101023405FA03F38842E4B2C7F8403741
:103C8000C7F8480700F3FF810025012207A90F208C
:103C90008DF81C5002F088FBA0453FF61CAF65E78D
:103CA000755D40F2E017C2F20307A31C05F007029E
:103CB000DBB287F84427F25CC2F3021287F845278B
:103CC000F35C202103F00F03002087F8CD35FEF7C9
:103CD0009BFEC5F3C2052023AB4048F637121844BB
:103CE000C0F24102904284BF4FF47A71414340F2E6
:103CF000B86098BF0021C2F2030007F0F1FD97F809
:103D00004537012B94BF00200220FFF78FFD0334BD
:103D100040F2B860E4B2C2F2030007F003FDA04530
:103D20003FF6D9AE22E7082002F06AFD002840F0F5
:103D3000E68140F2E017C2F203072C46A04587F85F
:103D40003C043FF6C8AE11E7735D40F2E0171A0974
:103D500003F00F01C2F20307012303FA01F1023459
:103D60009340A7F8FE130022E4B207A90C20A7F89D
:103D7000FC3302F019FBA0453FF6ADAEF6E640F28B
:103D8000E017C2F20307725D97F83A3702349A429D
:103D9000E4B23FF6E9AE09A90B2002F0A5FB00282A
:103DA0007FF4E2AEEDE6E21CD2B2231DB15C725D9F
:103DB0008DF83820DBB2A21CF35CD2B21B04B25CDB
:103DC00043EA012340F2E0171343C2F203076422DF
:103DD00002FB03F30F9397F8DC0503230EA98DF87C
:103DE000193003F01BFE0534C3B20028E4B28DF88D
:103DF0001930FFF6B9AE012207A90A208DF81C3050
:103E000002F0D2FAB0E6735D00228DF8202040F275
:103E1000E01713F0200218BF0122C2F203078DF849
:103E20002120DA0648BF012203F00F0397F8DC05D2
:103E300048BF8DF8202008A98DF8223003F0E6FD58
:103E400002340130E4B23FF48FAE47F290339DF874
:103E500022109DF820208DF83A20C0F60103BDF80D
:103E600020205B5CA7F8102607EE903AF8EE677A00
:103E700007F28453C3ED247A0EA9022397F8DC05D8
:103E80008DF8383003F04CFD97F9CD350A9040B2EB
:103E90009842B8BF184687F8CD05002207A9092027
:103EA00002F082FAA0453FF616AE5FE6735D03F0BE
:103EB0000F03012B38BF01234FF47A7240F2E01751
:103EC00002FB03F3C2F2030799180234C7F8F01596
:103ED0000022E4B207A90820C7F8EC3502F064FA22
:103EE000A0453FF6F8AD41E6E21CD2B2231DB15C1D
:103EF000725D8DF82C20DBB2A21CF35CD2B21B04E5
:103F0000B25C43EA01231343611D642240F2E017CF
:103F100002FB03F3C9B2C2F203070E930323725CE0
:103F20008DF8193097F8DC058DF8402000230DF14D
:103F300038090AA90F93CDF8289003F05FFD0634E5
:103F4000C3B20028E4B28DF81930FFF60DAE01229D
:103F500007A907208DF81C3002F026FA04E6231D7D
:103F6000E21CDBB2D2B2A11CF35CB05C725DC9B2E0
:103F70001B04715C43EA002340F2E0170B43C2F2DA
:103F80000307642101FB03F3C2F302110F9302F054
:103F90000F0207238DF8391097F8DC058DF83820CB
:103FA0000EA98DF8193003F021FD00F00702053449
:103FB000072AE4B203468DF8190079D0012207A937
:103FC00005208DF81C3002F0EFF9A0453FF683ADD7
:103FD000CCE5735D40F2E01703F00F03C2F2030774
:103FE000012199400234A7F82C170022E4B207A956
:103FF000042087F8273702F0D7F9A0453FF66BADCC
:10400000B4E5042002F0FCFB00283FF4E3AD0421FA
:10401000002040F2E01702F085FBC2F20307A31C68
:10402000725D87F86024DBB20334F35C87F8613497
:10403000E4B299E540F2E017C2F20307725D97F827
:104040003A3702349A42E4B23FF68EAD09A9012014
:1040500002F04AFA00287FF487AD92E500238DF83C
:104060001A308DF81B308DF820308DF82830BBF1D8
:10407000000F00F092800534E4B2A0454FF0010B30
:104080003FF629AD72E54FF47A7303FA02F207F5B1
:104090009260C7F8F02407F0E7FB07F59260D7F8C5
:1040A000F01407F01DFC07F5926007F03BFBECE510
:1040B0009DF838100F9A87F8041687F80C169DF8AB
:1040C0003910C7F80026C7F8082687F8FD1575E7E8
:1040D0000C21002002F026FBA21CD2B2E31C40F609
:1040E000D837715DB05CDBB2C2F2000741EA002054
:1040F0003A68F15C0434E4B202F038F934E508219E
:10410000002002F00FFBE31CA21CD2B2DBB2611D47
:10411000B75CF35C705D221DC9B2D2B2715CB55C54
:104120001B0443EA07234FF47A7202FB01F20343B4
:104130000DF1380943EA05654846131240F2E017CD
:104140000022C2F20307ADF82C30ADF82E2007F0A4
:104150004FFC039B1D44D7F83C330A9500930AADEE
:10416000D5E90012D7F838330CA807F001FC0D9BF5
:10417000009399E806000C9B284607F0DBFB95E8C6
:10418000030007F013FC063402F0F2F80123E4B256
:1041900087F83C34E8E4FF20D9E40AAA40F2E017AB
:1041A000049208F10102C2F203076B1E0DF13809F7
:1041B0000DF1200B0592334497F8CD1597F826277B
:1041C0000F9397F8CC3597F810068DF843108DF8BB
:1041D000443097F8FC15D7F838378DF842208DF821
:1041E00041008DF845100E93002A4FD0059BA3EB9C
:1041F000050C5FFA8CFC049B8DF840C0CDE900B340
:104200000DF11A020DF11B0397F8DC05494603F086
:10421000DDFB00F00703072B8DF8190013D197F988
:10422000CD259DF91A3087F8CD359A42B8BF0122C5
:104230009DF82030B8BF87F829279DF81B2087F804
:10424000CC2587F8FC359DF82820042A88BF002457
:104250000ED901220DF11901032002F0A5F89DF8F5
:1042600028200134E3B2AAFB0201B3EB910FF0D393
:104270001544EDB26B1EDAB290450AD9B15C032940
:1042800099D01446A84598BF2C46F6E64FF0050C89
:10429000B1E71446F1E600BFB0B1A9B1037B13F05A
:1042A0000F0307D190F82820AAB901230B7000232F
:1042B0001846704790F820304BB990F82830002B02
:1042C000F3D017231846704703231846704700237E
:1042D0000B701846704790F8202012B902220A701D
:1042E000E6E703220A701846704700BF2DE9F04F39
:1042F00040F23455A9B0C2F2000508A8FDF7A0FDB0
:104300002C68002308A82B60FDF7A0FD002C40F0CE
:104310009A8040F2E014C2F2030402F033F894F8F9
:104320008D34D80661D5D4F84023002184F88E144A
:10433000110644BF22F08202C4F8402313F0050F97
:1043400040F026815D0700F1878203F00102002A18
:1043500000F06B8294F84424002A00F05081032A74
:1043600000F04D81012A00F0678494F88D3400201C
:104370006FF3041384F88D3484F81904FFF798F967
:10438000D4F8403343BB94F88D54EA0740F11981C7
:1043900094F88D346FF3000384F88D34DAB25B0740
:1043A00040F1D3836FF38202012384F88D2484F8D3
:1043B0008E34D4F8443340F224601B68C2F2030008
:1043C00098476F0700F1098101F0C4FF94F88D341C
:1043D0006FF3041384F88D3494F88D34012243F084
:1043E000200384F88D3484F88E241E070FD594F8AA
:1043F0008D34D4F844236FF3C30340F24C60D26889
:1044000084F88D34C2F20300904794F88D349D07F0
:104410000DD594F88D34D4F8442340F200606FF346
:104420004103526884F88D34C2F20300904794F837
:104430008C34022B00F0A98094F88D3498061CD49B
:1044400029B0BDE8F08FE6B214F0200F40F2E0147E
:10445000C2F2030440F00981F70600F166813307D8
:1044600000F1C081770700F1FB80B5077FF555AFFC
:1044700004210320FEF7FAFB4FE7D4F840536FF313
:10448000451384F88D34002DDAD140F26470342164
:10449000C2F20300FEF704FBD4F8B835984218BF07
:1044A000C4F8B80540F29C704FF01C01C2F2030042
:1044B00018BF0125FEF7F4FAD4F8D835984218BF92
:1044C000C4F8D80540F2BC704FF4BE71C2F20300CC
:1044D00018BF45F00205FEF7E3FAD4F858379842C2
:1044E00018BFC4F8580740F63C104FF4CE71C2F222
:1044F000030018BF45F00405FEF7D2FAD4F8F838E7
:10450000984218BFC4F8F80840F6DC204FF00001CC
:10451000C2F2030018BF45F00805FEF7C1FAD4F84F
:10452000FC38984218BFC4F8FC0840F6E0204FF071
:10453000C401C2F2030018BF45F01005FEF7B0FA3F
:10454000D4F8C439984218BFC4F8C40940F6A8305A
:104550004FF01401C2F2030018BF45F02005FEF72A
:104560009FFAD4F8DC399842D4F848331CBFC4F819
:10457000DC0945F04005002B3FF462AF9B68002B3F
:104580003FF45EAF284698475AE7FEF7EBFC53E747
:104590000A2002F035F994F88D3400283FF4D2AEA9
:1045A000DF0700F156815E0740F13F81D4F84033C8
:1045B00023F00203C4F84033002B7FF40DAF94F8CE
:1045C0008D54690740F1348194F88D3401226FF3E2
:1045D000820384F88D3484F88E2440F23860C2F26D
:1045E000030002F033F902F08BF900283FF4ECAE3F
:1045F00094F88D3443F0040384F88D34E4E694F8A1
:10460000181494F8FC25914207D298077FF5ADAEB7
:1046100094F83134012B3FF6A8AE40F25050C2F26C
:10462000030007F021F9D4F8403323F02003C4F845
:104630004033FEF7CDFAD4F84037D4F8D025934272
:104640007FF49EAE94F83A27002A3FF499AE002BEF
:104650003FF496AE0020C4F8D005FFF7E7F88FE6E8
:1046600006210520FEF702FBFFE694F82437022B13
:1046700005D047F2AC53C0F60103DB6A984740F21D
:104680006850D4F8B813C2F2030007F029F940F2D9
:104690006850C2F2030007F045F840F28050D4F8A9
:1046A000BC13C2F2030007F01BF940F28050C2F2C3
:1046B000030007F037F894F81A34002B40F0DF803D
:1046C00084F8453440F6D433C2F200030DF13408C7
:1046D0001B6894F81B24C4F8C03540461D938DF820
:1046E000702007F0ABF9D4F83437009304AF98E8A2
:1046F00006003846D4F8303707F03AF997E8030057
:1047000094F83C37D4F81C241E92002B1FAA82E890
:10471000030018BF012394F8DC058DF871301CA943
:1047200003F008F9F7067FF59AAE2978D4F860B659
:1047300040F6D8370023C2F2000747F2AC5263F3C9
:104740000001C0F601022970B7F90AA097F90C9090
:1047500094F88C140A93ADF81C3084F84834A4F80B
:10476000223484F82534C4F82834A4F82C3484F88E
:104770003234C4F8343484F82034C4F8383484F83B
:104780003C34C4F84034A4F82EA4D36A84F830949E
:1047900084F83114D7F804803D89984794F831346F
:1047A000002B00F086802946404601F0C5FD002818
:1047B00044D194F82437012B00F0CB8198F800A065
:1047C0001AF0030F3FD14FEA5A13013B062B00F2B8
:1047D0008180DFE813F00E017F009C007F009900CC
:1047E0007F00A10194F82437022B25D047F2AC5367
:1047F000C0F60103DB6A984794F82437022B1BD0DC
:104800000623022084F88C3484F8450401F0D6FF96
:1048100094F81A3413B1012384F8193494F88D34C0
:1048200043F0100384F88D341CE6D4F84033C3E61B
:10483000012384F88E34C7E50223E2E7A4F87EA4BE
:1048400084F880940BE6012384F82134FEF79EF966
:1048500005E65A077FF57EAD012001F0D1FF78B360
:10486000012001F085FF08B984F81804D4F840232A
:1048700094F88D3422F00202C4F8402365E5142335
:1048800012A994F8DC058DF8483003F049F8D4F803
:10489000BC13034640F2E0501944C2F203000F93E8
:1048A00007F01EF840F2E050C2F2030006F03AFFB3
:1048B00008E740F28050C2F2030006F0D5FF72E72D
:1048C000052001F09DFF0028D0D194F88D3403F02D
:1048D00001023CE5012384F82134FEF757F994F8EE
:1048E0003134012B40F24681022B05D094F88D34EF
:1048F00043F0100384F88D3494F82437022B18BF4A
:10490000062384F88C34AAE5012384F8203494F833
:10491000113694F824248DF82E3094F8DC058DF8A7
:104920002D200D230BA98DF82C3002F0F9FFA5F1F5
:104930000D031BB223EAE37302B29342099082DCB7
:104940000B2D80D940F21842C2F20302FF231CA8AB
:104950008DF87450CDF8708025928DF8983002F063
:1049600059FE054600287FF46EAF94F82437012BDA
:1049700000F01F821E9BC4F8383412A91CA8FFF750
:104980008BFC054600287FF45EAF40F264721E98EF
:104990000A95C2F203022946D2F8E430834200F0BD
:1049A00008810131042902F13002F5D194F83A87E7
:1049B0009DF84830B8F1010F00F08F825B464FF050
:1049C00003088B46BDF87E1003930AAA404602F006
:1049D000D1F9039B002800F0568107280A9A00F0BD
:1049E0004482012384F82134C4F83424FEF7CEF83D
:1049F00035E5102D7FF627AF94F83C37CDF8488089
:104A0000EDB28DF84C5023B194F85437002B3FF49D
:104A10001AAF04F0E7FB12AA0146FF2002F0C6FC21
:104A20009DF8583094F811268DF871200746C3F38D
:104A3000030394F8DC058DF8703007221CA902F0FE
:104A400085FF002F40F00B81002800F008819DF8C1
:104A500053309DF852009DF851109DF858201B04CA
:104A600043EA00230B439DF85910C4F85C36C2F3A7
:104A70000210C2F30303159A84F8FD0584F8043686
:104A800084F80C36C4F86026002900F0A8814FF4A1
:104A90007A7303FB01F303F57A729DF95810C4F899
:104AA000EC3500290DF15A004FF48063C0F2001379
:104AB000C4F8F025B8BF4FF0807394F81B24109011
:104AC000113D94F8DC05C4F8383701270FA98DF89B
:104AD0003C208DF8445084F8FC7502F041FF94F8B6
:104AE0003A37022284F83C27002B40F09D810120B8
:104AF00001F086FE002840F0928194F85437002B94
:104B00003FF4EDAE40F2B8600023C2F2030084F837
:104B1000543706F0A9FEE2E640F21847C2F2030756
:104B2000013DAAB208F101013846FDF78FFF94F864
:104B30008D34C4F8287443F00203032284F82C5403
:104B400084F88D34A4F82024C9E6012384F88E3437
:104B50002FE4039001F0F4FB8246D8B1039A10468B
:104B600001F0DEFB039A104601F0E2FB042384F817
:104B7000313423E694F81A34002B3FF4B7AE94F89E
:104B80004834002B3FF4B2AE0020FDF7E7FF94F865
:104B90003134A9E601F0D6FB00283FF40FAE5046B1
:104BA00001F0C0FB504601F0C5FB052384F8313409
:104BB00004E692F8E1C0BCF1000F3FF4F2AE4FF012
:104BC000300B0BFB014B94F82417DBF888269BF87D
:104BD00066B612680A92022902D1032184F83114C0
:104BE0009DF84880B8F1030F7FF42DAE9DF87C103E
:104BF00011F0600F7FF427AEBBF1040F3FF6F1AE6A
:104C0000DFE80BF007030F0B13005D464FF00508BC
:104C1000D8E601254FF00408D4E601254FF0070837
:104C2000D0E601254FF00608CCE694F83A57012D5E
:104C300000F05E810125C5E694F81924D2B194F8FC
:104C4000181494F8FC259142BFF4E7AC99077FF55E
:104C50008CAB94F84834002B3FF487ABDDE40120A3
:104C600001F0CEFD00283FF43AAE0121072001F00B
:104C700059FD34E6D4F84033002B7FF4ADAB94F803
:104C80008D54FFF785BB1CAA0092194642460A9B29
:104C9000584602F09BFA002840F0E9809DF87C30ED
:104CA00094F8312484F82104C3F3401384F8323497
:104CB00084F84834012A0A9B84F82254C4F8280452
:104CC00084F82C0484F84504C4F8343404D801234F
:104CD000C4F8BC0584F82A37012D00F0F6800AF0EC
:104CE000E00ABAF1A00F7FD0002384F8CE3584F813
:104CF00020349DF87C30D80600F18B80D4F8403405
:104D000013B1012384F82534012A94F844149DF842
:104D10007C3040F2B6809DF84830032B00F2EB80E7
:104D2000DFE803F002382B0C9DF87C1094F8313446
:104D30004A4601F00F0120A8FEF7B2FE9DF8903020
:104D400025999DF8982084F823340123C4F8281469
:104D500084F82C2484F82D3494F85437002B40F038
:104D6000A4809DF89030E02B00F0938094F88D346F
:104D700043F0020384F88D34B1E594F831349DF8A2
:104D8000981025984A46FEF78BFE9DF8903084F8DF
:104D90002334E1E79DF87C1094F831344A4601F061
:104DA0000F0120A8FEF77CFE9DF8903084F8233494
:104DB000D2E701F0C5FA8046002840D0284601F02D
:104DC000AFFA284601F0B4FA9DF87C101E9804232F
:104DD000C1F3001184F8313401F0D2FACAE54FF47E
:104DE000FA624FF47A7358E694F83A37012184F85E
:104DF000CE1513B9279BC4F8C83501239A4284F80D
:104E0000203406D93B68C4F800354FF4FA53C4F88F
:104E1000403494F82437002B3FF473AF6EE7012140
:104E2000002001F07FFC68E600253A4607A90B2028
:104E30008DF81C30A4F8D65501F0B6FA57E601F00B
:104E400081FA00283FF496AD404601F06BFA4046E7
:104E500001F070FA9DF87C101E980523C1F3001133
:104E600084F8313401F08CFA84E50823BAE502288D
:104E70000CBF0A230B2384F82134FDF787FEFFF7CC
:104E8000EEBA012902D199067FF545AF01F05CFB2E
:104E900041E794F82B27002A7FF468AF84F8233485
:104EA000C4F82824A4F82C2460E740F2B860002558
:104EB000C2F2030084F8545706F0D6FC94F88D34FF
:104EC0005A0748BF84F859544BE794F8CE3502216D
:104ED00084F82014002B9CD10BE733B1032B08BFBF
:104EE0004FF002085B468B466CE51D465B468B46E1
:104EF0004FF0020866E5012384F82134FDF746FEF1
:104F00002AE700BF2DE9F0478AB0002800F0E181D0
:104F10000E46002900F0DD8103680546002B00F0F5
:104F2000D8814368002B00F0D4818368002B00F007
:104F3000D081C368002B00F0CC811046914602F06E
:104F4000E9FC002800F0CF8140F2E014C2F2030433
:104F500004F28458284601F0C1FB404640F25C420E
:104F60000021FDF793FD204640F284520021FDF719
:104F70008DFD00274FF0807E04F6FC0C04F51062D6
:104F8000484604F51E6306A9CDE906C2C4F838E711
:104F900084F8DC95089384F824778DF8247002F067
:104FA000CFFC0E2304A994F8DC058DF8103002F034
:104FB000B7FCC31B18BF01234FF00A0A04A994F8D9
:104FC000DC0584F828378DF810A002F0A9FC4FF01A
:104FD0000609034604A994F8DC0584F858368DF8D0
:104FE000109002F09DFC034604A984F8593694F809
:104FF000DC050F238DF8103002F092FC034604A963
:10500000C4F8243694F8DC0510238DF8103002F033
:1050100087FC034604A9C4F8283694F8DC0511235C
:105020008DF8103002F07CFC034604A9C4F82C363D
:1050300094F8DC0512238DF8103002F071FC034661
:1050400004A9C4F8303694F8DC0513238DF8103029
:1050500002F066FC034604A9C4F8343694F8DC0573
:1050600015238DF8103002F05BFC034604A984F888
:10507000393694F8DC0516238DF8103002F050FC18
:105080001722034604A994F8DC05C4F83C36C4F89A
:1050900044368DF8102002F043FC1C22C3B204A950
:1050A00094F8DC058DF8102084F8403684F84836F2
:1050B00002F036FC034604A984F84C3694F8DC056B
:1050C0001D238DF8103002F02BFC034604A984F850
:1050D0004D3694F8DC051E238DF8103002F020FCCC
:1050E0000346C8F8CC3004A91F2394F8DC058DF8DA
:1050F000103002F015FC0346C8F8D03004A90B2389
:1051000094F8DC058DF8103002F00AFC034604A97F
:10511000A4F8FC3394F8DC050C238DF8103002F071
:10512000FFFBD4F82C36C4F8F035D4F83036D4F878
:105130002826D4F8241684F8209684F8E495C4F838
:10514000F4354FF00109D4F83436C4F8EC25C4F82E
:10515000F8350390A4F8FE03C4F8E81584F83896EF
:1051600084F8FC9584F82B97C4F81CA6C4F8E0A535
:10517000FDF754FE43F2B16104F55C70C0F6000126
:10518000C4F8445384F82597C4F84863C4F840939E
:1051900084F88D74C4F8C075C4F8C47506F0BAFA02
:1051A00043F2111104F56270C0F6000106F0B2FA84
:1051B00043F2551104F56870C0F6000106F0AAFA32
:1051C00042F65D3104F58060C0F6000106F0A2FAF7
:1051D00043F64D2104F59260C0F6000106F09AFAFC
:1051E00043F6F91104F59560C0F6000106F092FA55
:1051F00043F6A51104F59860C0F6000106F08AFA9E
:1052000043F65D11C0F600016D4604F59B6006F0A3
:1052100081FA284606F012FC95E8030042F66D522A
:1052200042F6C555C0F60005C0F6000247F2AC567E
:1052300040F2345342F60D39C2F20003C0F60009C1
:10524000C4F84C53C4F8542342F6E52EC0F60106C8
:1052500042F6353C4AF6497549F22522C0F6000E61
:10526000C0F6000CC0F60002C4F85C93C0F600055E
:1052700004F5E66989E803001F6004F55370C4E98A
:10528000DA253368C4F850E3C4F858C3984704F2E9
:105290005C7003F0D1FD08BB404601F033FDE8B976
:1052A00001F072F820BB40F64400C2F2030001F0A6
:1052B000A5FD054690B973699847FDF79FFBB36D4F
:1052C00094F825079847F36A9847012384F88E34A9
:1052D00000E0032528460AB0BDE8F08711252846DE
:1052E0000AB0BDE8F087092528460AB0BDE8F08776
:1052F0001325EFE740F2E013C2F203030020C3F8E6
:1053000040037047F0B540F2E014C2F203048FB0DE
:10531000D4F8BC7594F8595694F8583694F8182473
:1053200004974FF0000C8DF80D508DF80E308DF86D
:105330000F20CDF814C000294DD0B4F8CC3594F826
:1053400026E70A970D4604A95BBA00910646D4F8F1
:10535000FC1394F8100694F8DC758DF83220ADF843
:1053600030300DF10E020DF10F030B918DF833006B
:105370000DF10D0109A88DF824C08DF825E08DF8F8
:10538000347000F04FFF9DF90D3094F810268DF821
:105390001D3094F8DC058DF81E200D2307A98DF82B
:1053A0001C3002F0BDFA687005A801F025F9A8B913
:1053B000059B0F2B0AD86A78934207D81E44B24245
:1053C00038BF0820D31A2B700FB0F0BD002308207F
:1053D0002B700FB0F0BD03200FB0F0BD13200FB045
:1053E000F0BD00BF00284FD010B5037884B004464C
:1053F000472B4CD8DFE813F09C0193018E01890103
:1054000084017B01720169014B004B004B004B0092
:105410004B004B004B004B004B004B004B004B0034
:105420004B004B004B004B004B004B004B004B0024
:105430004B0060015A014F01440139012E0128013E
:10544000190110010701FE00F500EC00E300D00097
:10545000C700BE00B500AC00A3009A009100880010
:1054600081004B0075006C0063005A004B004B003C
:105470004B004B004B004B004B004B004B004B00D4
:105480004B004B004B00510003231846704700F0BF
:1054900065FF0346184604B010BD40F2E012C2F2A8
:1054A0000302002392F82B270271F3E740F2E01287
:1054B000C2F203020023D2F850274260EAE740F22A
:1054C000E012C2F203020023D2F84C274260E1E767
:1054D00040F2E012C2F203020023D2F848274260F1
:1054E000D8E740F2E013C2F20303D3F83837436041
:1054F00002F0C6FA0023A060CCE740F26473C2F267
:10550000030343600023C5E740F26473C2F2030360
:10551000D3F8D02042600023BCE740F26473C2F2AB
:105520000303D3F8942042600023B3E740F2E01273
:10553000C2F20302002392F8E4250271AAE740F2C6
:10554000E012C2F203020023D2F8E0254260A1E794
:1055500040F2E012C2F20302002392F858260271D0
:1055600098E740F2E012C2F20302002392F8CC2541
:1055700002718FE740F2E012C2F20302002392F8B8
:10558000CD25027186E740F2E012C2F20302002349
:1055900092F8592602717DE740F2E013C2F203034C
:1055A000022293F8101693F8DC058DF80A1002A970
:1055B0008DF8082002F0B4F9002320716AE740F268
:1055C000E012C2F203020023D2F8F825426061E73C
:1055D00040F2E012C2F203020023D2F8F425426046
:1055E00058E740F2E012C2F203020023D2F8F0259D
:1055F00042604FE740F2E012C2F203020023D2F809
:10560000EC25426046E740F2E012C2F203020023BA
:10561000D2F8E82542603DE740F2E012C2F2030210
:10562000002392F8FC25027134E740F2E013C2F245
:105630000303192293F8DC058DF8082002A902F073
:105640006FF90023606025E740F2E013C2F2030324
:105650001822EFE740F62403C2F2030393E80300A5
:10566000043484E80300002314E740F2E873C2F234
:10567000030393E80300043484E80300002309E7EC
:1056800040F61C03C2F2030393E80300043484E8E9
:1056900003000023FEE640F2E073C2F2030393E846
:1056A0000300043484E803000023F3E640F2E0132F
:1056B000C2F203031B22BDE740F2E012C2F2030272
:1056C000002392F825270271E4E640F2E012C2F2CC
:1056D00003020023D2F860264260DBE640F2E012CB
:1056E000C2F203020023D2F85C264260D2E640F206
:1056F000E012C2F20302002392F826270271C9E6E3
:1057000003F088FD00236060C4E603F06BFD002316
:105710006060BFE603F050FD00236060BAE640F22F
:10572000E012C2F20302002392F83C270271B1E6B4
:1057300040F2E012C2F2030292F824270271A9E6B5
:10574000002800F0268370B540F2E015C2F2030590
:1057500084B0D5F840339A074DD402780446472ADE
:105760004CD8DFE812F012030B030403FD02F6022B
:10577000F202EE02EA02DF02D402C902BE02B30262
:10578000A8029D02920287027C02710266025B02FD
:10579000500245023A022F02240219020E020202AE
:1057A000F8014B00DF01C60173015A014C013E01B3
:1057B000360132012E012A01260122014B0011017E
:1057C000FD00AF019E01C001F700A1009900A900F2
:1057D00092004B0077005C004B004B004B004B00ED
:1057E0004B004B004B004B004B004B004B004B0061
:1057F0004B004B005800012004B070BD00F0B0FD1C
:105800000028F9D195F88D34002043F0200385F865
:105810008D3404B070BD037985F82B37F2E7D5F8E5
:105820004C2748F63713C0F241039A4231D94FF45E
:105830007A7140F2886001FB02F1C2F20300C5F800
:10584000F41406F04DF840F28860C2F2030005F04F
:1058500069FFD7E7D5F8482748F63713C0F2410368
:105860009A4216D94FF47A7140F2706001FB02F14E
:10587000C2F20300C5F8F01406F032F840F270608E
:10588000C2F2030005F04EFFBCE78379012B40F222
:105890008282032004B070BD40F26473C2F203033D
:1058A0004268C3F8D020ADE740F26473C2F203034C
:1058B0004268C3F89420A5E74468002CE9D0012B86
:1058C00099D134212046FDF7EBF8636B984200F044
:1058D000A48204F1380630461C21FDF7E1F8636D1F
:1058E000984200F0918204F1580630464FF4BE71A0
:1058F000FDF7D6F8D4F8D431984200F0698204F567
:10590000EC7630464FF4CE71FDF7CAF8D4F8743314
:10591000984200F0538204F55E7630460021FDF790
:10592000BFF8D4F87833984200F03F8204F244463E
:1059300030461421FDF7B4F8D4F8583498427FF477
:1059400061AF40F6A83031461822C2F20300FDF7DD
:105950007DF857E7037985F8203685F8E43551E777
:10596000027995F810368DF8042095F8DC058DF84D
:105970000630052201A901F0E9FF002889D09DF831
:10598000043085F8CD353DE7037995F8DC058DF8D1
:105990000430062201A901F0D9FF00283FF479AFB5
:1059A0009DF8043085F859362CE74368C5F8F8357A
:1059B00028E74368C5F8F43524E74368C5F8F035AF
:1059C00020E74368C5F8EC351CE74368C5F8E835BF
:1059D00018E703795A1E0E2A3FF65BAF85F8FC35AF
:1059E00010E74368029395F8DC05012302A98DF8BE
:1059F0000C3001F0BBFF00287FF404AF49E7436897
:105A0000029395F8DC05002302A98DF80C3001F013
:105A1000ADFF00287FF4F6AE3BE7027A95F8113629
:105A20008DF8042095F8DC058DF80530072201A9D2
:105A300001F08CFF00283FF42CAFD4E9010140F6BF
:105A40002403C2F2030383E80300DBE6027A95F83D
:105A500011368DF8042095F8DC058DF80530072205
:105A600001A901F073FF00283FF413AFD4E901014D
:105A700095F8242740F2E873C2F20303022A83E870
:105A800003007FF4BFAE95F83C37002B3FF4BAAE6D
:105A900047F2AC53C0F60103DB6A9847FDF762FAA0
:105AA000B0E6037995F8DC058DF804300A2201A9E7
:105AB00001F04CFF00283FF4ECAE9DF8043085F86F
:105AC00058369FE6037995F8DC058DF804300922F5
:105AD00001A901F03BFF00283FF4DBAE9DF8043044
